{
  "contractName": "BCVotingFactory",
  "abi": [
    {
      "constant": true,
      "inputs": [],
      "name": "associatedEC",
      "outputs": [
        {
          "name": "",
          "type": "address"
        }
      ],
      "payable": false,
      "stateMutability": "view",
      "type": "function"
    },
    {
      "constant": true,
      "inputs": [
        {
          "name": "",
          "type": "uint256"
        }
      ],
      "name": "allVotings",
      "outputs": [
        {
          "name": "",
          "type": "address"
        }
      ],
      "payable": false,
      "stateMutability": "view",
      "type": "function"
    },
    {
      "constant": true,
      "inputs": [],
      "name": "associatedFastEC",
      "outputs": [
        {
          "name": "",
          "type": "address"
        }
      ],
      "payable": false,
      "stateMutability": "view",
      "type": "function"
    },
    {
      "inputs": [
        {
          "name": "_associatedEC",
          "type": "address"
        },
        {
          "name": "_associatedFastEC",
          "type": "address"
        }
      ],
      "payable": false,
      "stateMutability": "nonpayable",
      "type": "constructor"
    },
    {
      "anonymous": false,
      "inputs": [
        {
          "indexed": false,
          "name": "newAddress",
          "type": "address"
        }
      ],
      "name": "BCVotingContractCreated",
      "type": "event"
    },
    {
      "constant": false,
      "inputs": [
        {
          "name": "_candidates",
          "type": "string[]"
        },
        {
          "name": "_cand_generators",
          "type": "uint256[]"
        },
        {
          "name": "_deltaT",
          "type": "uint256"
        },
        {
          "name": "_mpc_batch_size",
          "type": "uint256"
        }
      ],
      "name": "createBCVoting",
      "outputs": [
        {
          "name": "",
          "type": "address"
        }
      ],
      "payable": false,
      "stateMutability": "nonpayable",
      "type": "function"
    },
    {
      "constant": false,
      "inputs": [],
      "name": "destruct",
      "outputs": [],
      "payable": false,
      "stateMutability": "nonpayable",
      "type": "function"
    },
    {
      "constant": true,
      "inputs": [],
      "name": "getCntOfVotings",
      "outputs": [
        {
          "name": "",
          "type": "uint256"
        }
      ],
      "payable": false,
      "stateMutability": "view",
      "type": "function"
    }
  ],
  "bytecode": "0x608060405234801561001057600080fd5b5060405160408062008f2f83398101806040526100309190810190610072565b60018054600160a060020a03938416600160a060020a031991821617909155600280549290931691161790556100d4565b805161006c816100bd565b92915050565b6000806040838503121561008557600080fd5b60006100918585610061565b92505060206100a285828601610061565b9150509250929050565b6000600160a060020a03821661006c565b6100c6816100ac565b81146100d157600080fd5b50565b618e4b80620000e46000396000f3fe60806040523480156200001157600080fd5b506004361062000086577c010000000000000000000000000000000000000000000000000000000060003504630ff5f68b81146200008b5780632b68b9c614620000ad57806334524fca14620000b9578063460c88c814620000d057806387a2136914620000e9578063e07c301d14620000f3575b600080fd5b6200009562000119565b604051620000a49190620005cd565b60405180910390f35b620000b762000128565b005b62000095620000ca36600462000428565b6200012b565b620000da62000153565b604051620000a491906200066f565b6200009562000159565b6200010a620001043660046200038d565b62000168565b604051620000a491906200065f565b600154600160a060020a031681565b33ff5b600081815481106200013957fe5b600091825260209091200154600160a060020a0316905081565b60005490565b600254600160a060020a031681565b600154600254604051600092839288928892889288923392600160a060020a03908116921690620001999062000228565b620001ab9796959493929190620005dd565b604051809103906000f080158015620001c8573d6000803e3d6000fd5b50600080546001810182559080527f290decd9548b62a8d60345a988386fc84ba6bc95484008f6362f93160ef3e56301805473ffffffffffffffffffffffffffffffffffffffff1916600160a060020a0383161790559695505050505050565b61867f806200079383390190565b600082601f8301126200024857600080fd5b81356200025f6200025982620006a7565b6200067f565b81815260209384019390925082018360005b83811015620002a157813586016200028a888262000324565b845250602092830192919091019060010162000271565b5050505092915050565b600082601f830112620002bd57600080fd5b8135620002ce6200025982620006a7565b91508181835260208401935060208101905083856020840282011115620002f457600080fd5b60005b83811015620002a157816200030d88826200037a565b8452506020928301929190910190600101620002f7565b600082601f8301126200033657600080fd5b8135620003476200025982620006c9565b915080825260208301602083018583830111156200036457600080fd5b620003718382846200072f565b50505092915050565b8035620003878162000778565b92915050565b60008060008060808587031215620003a457600080fd5b843567ffffffffffffffff811115620003bc57600080fd5b620003ca8782880162000236565b945050602085013567ffffffffffffffff811115620003e857600080fd5b620003f687828801620002ab565b935050604062000409878288016200037a565b92505060606200041c878288016200037a565b91505092959194509250565b6000602082840312156200043b57600080fd5b60006200044984846200037a565b949350505050565b60006200045f838362000582565b9392505050565b6000620004748383620005c2565b505060200190565b62000487816200071a565b82525050565b620004878162000705565b6000620004a582620006f8565b620004b18185620006fc565b935083602082028501620004c585620006f2565b8060005b85811015620005055784840389528151620004e5858262000451565b9450620004f283620006f2565b60209a909a0199925050600101620004c9565b5091979650505050505050565b60006200051f82620006f8565b6200052b8185620006fc565b93506200053883620006f2565b8060005b838110156200056c57815162000553888262000466565b97506200056083620006f2565b9250506001016200053c565b509495945050505050565b620004878162000722565b60006200058f82620006f8565b6200059b8185620006fc565b9350620005ad8185602086016200073b565b620005b8816200076e565b9093019392505050565b620004878162000717565b602081016200038782846200048d565b60e08082528101620005f0818a62000498565b9050818103602083015262000606818962000512565b9050620006176040830188620005c2565b620006266060830187620005c2565b6200063560808301866200047c565b6200064460a08301856200048d565b6200065360c08301846200048d565b98975050505050505050565b6020810162000387828462000577565b60208101620003878284620005c2565b60405181810167ffffffffffffffff811182821017156200069f57600080fd5b604052919050565b600067ffffffffffffffff821115620006bf57600080fd5b5060209081020190565b600067ffffffffffffffff821115620006e157600080fd5b506020601f91909101601f19160190565b60200190565b5190565b90815260200190565b6000600160a060020a03821662000387565b90565b600062000387825b6000620003878262000705565b82818337506000910152565b60005b83811015620007585781810151838201526020016200073e565b8381111562000768576000848401525b50505050565b601f01601f191690565b620007838162000717565b81146200078f57600080fd5b5056fe60c06040527f79be667ef9dcbbac55a06295ce870b07029bfcdb2dce28d959f2815b16f8179860809081527f483ada7726a3c4655da4fbfc0e1108a8fd17b448a68554199c47d08ffb10d4b860a0526200005e90600890600262000449565b5070014551231950b75fc4402da1732fc9bebe19600a556401000003d019600b556000600c556007600d557f5363ad4cc05c30e0a5261c028812645a122e22ea20816678df02967c1b23bd72600e557f7ae96a2b657c07106e64479eac3434e99cf0497512f58995c1396c28719501ee600f5560006013556000601f55600060215560405180606001604052806008600060028110620000fa57fe5b01548152600954602082015260016040909101526200011e9060239060036200048c565b503480156200012c57600080fd5b506040516200867f3803806200867f8339810180604052620001529190810190620006bf565b60038054600160a060020a03808616600160a060020a0319928316179092556000805485841690831617905560018054928416929091169190911790558651865160029190910214620001dc576040517f08c379a0000000000000000000000000000000000000000000000000000000008152600401620001d39062000895565b60405180910390fd5b6019859055602284905560005b8751811015620004305760028882815181106200020257fe5b6020908102919091018101518254600181018085556000948552938390208251620002349491909201920190620004bc565b5050601460405180604001604052808984600202815181106200025357fe5b602002602001015181526020018984600202600101815181106200027357fe5b6020908102919091018101519091528254600181018085556000948552919093209092620002ab926002918202909201919062000449565b50506014805473__EC____________________________________916337103a67916000198101908110620002dc57fe5b60009182526020822060029091020101546014805460001981019081106200030057fe5b90600052602060002090600202016001600281106200031b57fe5b0154600c54600d54600b546040518663ffffffff167c010000000000000000000000000000000000000000000000000000000002815260040162000364959493929190620008b9565b60206040518083038186803b1580156200037d57600080fd5b505af415801562000392573d6000803e3d6000fd5b505050506040513d601f19601f82011682018060405250620003b8919081019062000799565b620003f1576040517f08c379a0000000000000000000000000000000000000000000000000000000008152600401620001d390620008a7565b600580546001818101835560009283527f036b6384b5eca791c62761152d0c79bb0604c104a5fb6f4eb0703f3154bb3db09091019190915501620001e9565b50506007805460ff191690555062000a09945050505050565b82600281019282156200047a579160200282015b828111156200047a5782518255916020019190600101906200045d565b50620004889291506200052e565b5090565b82600381019282156200047a57916020028201828111156200047a5782518255916020019190600101906200045d565b828054600181600116156101000203166002900490600052602060002090601f016020900481019282601f10620004ff57805160ff19168380011785556200047a565b828001600101855582156200047a57918201828111156200047a5782518255916020019190600101906200045d565b6200054b91905b8082111562000488576000815560010162000535565b90565b80516200055b81620009d9565b92915050565b600082601f8301126200057357600080fd5b81516200058a620005848262000936565b6200090f565b81815260209384019390925082018360005b83811015620005cc5781518601620005b588826200065c565b84525060209283019291909101906001016200059c565b5050505092915050565b600082601f830112620005e857600080fd5b8151620005f9620005848262000936565b915081818352602084019350602081019050838560208402820111156200061f57600080fd5b60005b83811015620005cc5781620006388882620006b2565b845250602092830192919091019060010162000622565b80516200055b81620009f3565b600082601f8301126200066e57600080fd5b81516200067f620005848262000957565b915080825260208301602083018583830111156200069c57600080fd5b620006a9838284620009a6565b50505092915050565b80516200055b81620009fe565b600080600080600080600060e0888a031215620006db57600080fd5b87516001604060020a03811115620006f257600080fd5b620007008a828b0162000561565b97505060208801516001604060020a038111156200071d57600080fd5b6200072b8a828b01620005d6565b96505060406200073e8a828b01620006b2565b9550506060620007518a828b01620006b2565b9450506080620007648a828b016200054e565b93505060a0620007778a828b016200054e565b92505060c06200078a8a828b016200054e565b91505092959891949750929550565b600060208284031215620007ac57600080fd5b6000620007ba84846200064f565b949350505050565b6000620007d16033836200097f565b7f43616e6469646174657320616e642067656e657261746f7273206d757374206881527f617665207468652073616d65206c656e67746800000000000000000000000000602082015260400192915050565b6000620008326029836200097f565b7f43616e6469646174652067656e657261746f72206d757374206265206f6e207481527f68652063757276652e0000000000000000000000000000000000000000000000602082015260400192915050565b6200088f816200054b565b82525050565b602080825281016200055b81620007c2565b602080825281016200055b8162000823565b60a08101620008c9828862000884565b620008d8602083018762000884565b620008e7604083018662000884565b620008f6606083018562000884565b62000905608083018462000884565b9695505050505050565b6040518181016001604060020a03811182821017156200092e57600080fd5b604052919050565b60006001604060020a038211156200094d57600080fd5b5060209081020190565b60006001604060020a038211156200096e57600080fd5b506020601f91909101601f19160190565b90815260200190565b60006200055b826200099a565b151590565b600160a060020a031690565b60005b83811015620009c3578181015183820152602001620009a9565b83811115620009d3576000848401525b50505050565b620009e48162000988565b8114620009f057600080fd5b50565b620009e48162000995565b620009e4816200054b565b617c668062000a196000396000f3fe6080604052600436106102e45760003560e060020a900480639bc428a41161018a578063ce6f8027116100db578063e8efd48011610089578063e8efd4801461083e578063eadd7f671461085e578063ed8b6b311461087e578063eeeac01e1461089e578063f446c1d0146108b3578063f97c5f98146108c8578063fc7e286d146108e8576102e4565b8063ce6f802714610799578063ce7c2186146107ac578063d1733084146107c1578063df0336f7146107e1578063e31de130146107f6578063e424a7e81461080b578063e55677481461082b576102e4565b8063bd48d95c11610138578063bd48d95c146106d6578063bf7e214f146106f6578063c040e6b81461070b578063c7a0f8f71461072d578063c8141dbd14610742578063cb7502a214610757578063ce60c90f14610784576102e4565b80639bc428a414610617578063a147b0141461062c578063a3f4ae9a1461064c578063b19de0db1461066c578063b52ee0f21461068c578063b93ebed0146106a1578063bb09c1b2146106b6576102e4565b806360fb95481161024457806386539e54116101f257806386539e541461056157806387a21369146105815780638d72b337146105965780638f5520bb146105ab5780638fb48316146105cb5780639870e2a4146105ed5780639a0ecbcd14610602576102e4565b806360fb9548146104975780636b42a657146104b7578063770d13b7146104cc5780637916081b146104e15780637cb63ec8146105015780637ebb1759146105215780638323aba614610541576102e4565b80632e9a0f09116102a15780632e9a0f09146103b157806332e7c5bf146103de5780633477ee2e146103f357806340a25e38146104205780634f9da42114610435578063556c06231461045557806358cc42171461046a576102e4565b80630f5e14eb146102e95780630ff5f68b1461031f5780631f51a7b61461034157806325091c041461035657806327f0f5931461036d5780632a8b47d61461039c575b600080fd5b3480156102f557600080fd5b506103096103043660046164cd565b610908565b60405161031691906176d0565b60405180910390f35b34801561032b57600080fd5b50610334610937565b60405161031691906175bb565b34801561034d57600080fd5b50610309610946565b34801561036257600080fd5b5061036b61094c565b005b34801561037957600080fd5b5061038d61038836600461649d565b610a66565b6040516103169392919061766f565b3480156103a857600080fd5b506103096110aa565b3480156103bd57600080fd5b506103d16103cc366004616461565b6110b1565b60405161031691906176b4565b3480156103ea57600080fd5b506103096110c6565b3480156103ff57600080fd5b5061041361040e366004616461565b6110cc565b60405161031691906176de565b34801561042c57600080fd5b50610309611172565b34801561044157600080fd5b506103096104503660046164cd565b611178565b34801561046157600080fd5b5061030961119e565b34801561047657600080fd5b5061048a610485366004616013565b6111a4565b604051610316919061765e565b3480156104a357600080fd5b5061036b6104b2366004616271565b611adb565b3480156104c357600080fd5b5061030961267a565b3480156104d857600080fd5b5061036b612680565b3480156104ed57600080fd5b5061048a6104fc36600461636f565b61272b565b34801561050d57600080fd5b5061030961051c366004616461565b61298a565b34801561052d57600080fd5b5061030961053c366004616461565b61299e565b34801561054d57600080fd5b5061030961055c3660046164cd565b6129ab565b34801561056d57600080fd5b5061036b61057c3660046160bb565b6129c4565b34801561058d57600080fd5b50610334613010565b3480156105a257600080fd5b5061036b61301f565b3480156105b757600080fd5b506103d16105c6366004616461565b61320e565b3480156105d757600080fd5b506105e0613229565b60405161031691906175c9565b3480156105f957600080fd5b506103096132a6565b34801561060e57600080fd5b506103096132ac565b34801561062357600080fd5b506103096132b2565b34801561063857600080fd5b506103096106473660046164cd565b6132b8565b34801561065857600080fd5b506103096106673660046164cd565b6132c5565b34801561067857600080fd5b50610334610687366004616461565b6132d2565b34801561069857600080fd5b506103096132f9565b3480156106ad57600080fd5b506103096132ff565b3480156106c257600080fd5b5061036b6106d1366004616212565b613305565b3480156106e257600080fd5b506103096106f1366004615f1c565b61396f565b34801561070257600080fd5b50610334613981565b34801561071757600080fd5b50610720613990565b60405161031691906176c2565b34801561073957600080fd5b50610309613999565b34801561074e57600080fd5b5061030961399f565b34801561076357600080fd5b50610777610772366004615f6f565b6139a5565b6040516103169190617642565b34801561079057600080fd5b50610309613fe4565b61036b6107a7366004615ff5565b613fea565b3480156107b857600080fd5b50610309614224565b3480156107cd57600080fd5b506103d16107dc366004615f1c565b61422a565b3480156107ed57600080fd5b5061030961423f565b34801561080257600080fd5b50610309614245565b34801561081757600080fd5b50610309610826366004616461565b61424b565b61036b610839366004615f3a565b614269565b34801561084a57600080fd5b506103d1610859366004615f1c565b614449565b34801561086a57600080fd5b50610777610879366004616461565b61445e565b34801561088a57600080fd5b50610309610899366004616461565b614496565b3480156108aa57600080fd5b506103096144a3565b3480156108bf57600080fd5b506103096144a9565b3480156108d457600080fd5b5061036b6108e3366004615fa4565b6144af565b3480156108f457600080fd5b50610309610903366004615f1c565b614bfb565b6011828154811061091557fe5b9060005260206000209060020201816002811061092e57fe5b01549150829050565b600054600160a060020a031681565b60175481565b60075460039060ff16600581111561096057fe5b81600581111561096c57fe5b146109955760405160e560020a62461bcd02815260040161098c9061780f565b60405180910390fd5b6109a060185461320e565b6109bf5760405160e560020a62461bcd02815260040161098c9061782f565b6007805460ff1916600417905560005b601054811015610a2a57600081815260126020526040902054610a2257601580546001810182556000919091527f55f448fdea98c4d29eb340757ef0a66cd03dbb9538908a6a81d96026b71ec475018190555b6001016109cf565b507f8aa54e20894381b5e774f4edeb6928c2fac88304ac3310342cc7adec86e77d456015604051610a5b91906176a3565b60405180910390a150565b606080610a71615bd2565b60075460029060ff166005811115610a8557fe5b816005811115610a9157fe5b14610ab15760405160e560020a62461bcd02815260040161098c9061780f565b602654610ad35760405160e560020a62461bcd02815260040161098c9061774f565b6010548610610af75760405160e560020a62461bcd02815260040161098c906177ef565b602254601054879003811115610b0f57506010548690035b6060602254604051908082528060200260200182016040528015610b4d57816020015b610b3a615bd2565b815260200190600190039081610b325790505b506010546022549192506000918a011115610b775760225460105481610b6f57fe5b066022540390505b602660016022548b81610b8657fe5b04602680549050030381548110610b9957fe5b60009182526020909120604080516060810191829052926003908102909201919082845b815481526020019060010190808311610bbd57505050505082600183602254030381518110610be857fe5b6020908102919091010152600181015b602254811015610cfd57600081602254039050610c77848281518110610c1a57fe5b60200260200101516010838e0181548110610c3157fe5b600091825260209091206040805180820191829052926002908102909201919082845b815481526020019060010190808311610c54575050505050600c54600b54614c0d565b866001850381518110610c8657fe5b6020026020010151600060038110610c9a57fe5b60200201876001860381518110610cad57fe5b6020026020010151600160038110610cc157fe5b60200201886001870381518110610cd457fe5b6020026020010151600260038110610ce857fe5b60200201929092529190525250600101610bf8565b50606083604051908082528060200260200182016040528015610d2a578160200160208202803883390190505b509050606084604051908082528060200260200182016040528015610d59578160200160208202803883390190505b509050610d64615bd2565b610d6c615bd2565b506022546010548c918e0190811115610d8457506010545b8d5b81811015611095578015610db557610da88360106001840381548110610c3157fe5b6040860152602085015283525b73__EC____________________________________631b54f824896022548481610ddb57fe5b0681518110610de657fe5b6020026020010151600260038110610dfa57fe5b6020020151600b546040518363ffffffff1660e060020a028152600401610e2292919061790f565b60206040518083038186803b158015610e3a57600080fd5b505af4158015610e4e573d6000803e3d6000fd5b505050506040513d601f19601f82011682018060405250610e72919081019061647f565b866022548381610e7e57fe5b0681518110610e8957fe5b602090810291909101015273__EC____________________________________63ff55ab5b8460006020020151856001602002015186600260200201518c6022548781610ed257fe5b0681518110610edd57fe5b6020026020010151600060038110610ef157fe5b60200201518d6022548881610f0257fe5b0681518110610f0d57fe5b6020026020010151600160038110610f2157fe5b60200201518e6022548981610f3257fe5b0681518110610f3d57fe5b6020026020010151600260038110610f5157fe5b6020020151600b546040518863ffffffff1660e060020a028152600401610f7e97969594939291906179ee565b60606040518083038186803b158015610f9657600080fd5b505af4158015610faa573d6000803e3d6000fd5b505050506040513d601f19601f82011682018060405250610fce919081019061652d565b60408088018290526020880192909252918652600b54905160e260020a6306d53e0902815273__EC____________________________________92631b54f8249261101b9260040161790f565b60206040518083038186803b15801561103357600080fd5b505af4158015611047573d6000803e3d6000fd5b505050506040513d601f19601f8201168201806040525061106b919081019061647f565b85602254838161107757fe5b068151811061108257fe5b6020908102919091010152600101610d86565b50939d929c509a509098505050505050505050565b6011545b90565b601e6020526000908152604090205460ff1681565b600d5481565b600281815481106110d957fe5b600091825260209182902001805460408051601f600260001961010060018716150201909416939093049283018590048502810185019091528181529350909183018282801561116a5780601f1061113f5761010080835404028352916020019161116a565b820191906000526020600020905b81548152906001019060200180831161114d57829003601f168201915b505050505081565b60225481565b6026828154811061118557fe5b9060005260206000209060030201816003811061092e57fe5b60265490565b6060806002805490506040519080825280602002602001820160405280156111e657816020015b6111d3615bd2565b8152602001906001900390816111cb5790505b50336000908152601d6020526040902054909150611202615bd2565b61120a615bf0565b60005b6002548110156119b95773__FastEcMul_____________________________63fcc8f07260405180608001604052808c856002028151811061124b57fe5b602002602001015181526020018c856002026001018151811061126a57fe5b602002602001015181526020018b856002028151811061128657fe5b602002602001015160000381526020018b85600202600101815181106112a857fe5b60200260200101516000038152506040518060c0016040528060086000600281106112cf57fe5b01548152602001600860010154815260200160018152602001601089815481106112f557fe5b600091825260208220600290910201015481526020016010898154811061131857fe5b906000526020600020906002020160016002811061133257fe5b015481526020016001815250600c54600f54600b546040518663ffffffff1660e060020a02815260040161136a9594939291906175e1565b60606040518083038186803b15801561138257600080fd5b505af4158015611396573d6000803e3d6000fd5b505050506040513d601f19601f820116820180604052506113ba919081019061652d565b60408087018290526020870192909252918552600b54905160e260020a6306d53e0902815273__EC____________________________________92631b54f824926114079260040161790f565b60206040518083038186803b15801561141f57600080fd5b505af4158015611433573d6000803e3d6000fd5b505050506040513d601f19601f82011682018060405250611457919081019061647f565b85828151811061146357fe5b602002602001015160006003811061147757fe5b60200201818152505073__FastEcMul_____________________________63fcc8f07260405180608001604052808c85600202815181106114b457fe5b602002602001015181526020018c85600202600101815181106114d357fe5b602002602001015181526020018b85600202815181106114ef57fe5b602002602001015181526020018b856002026001018151811061150e57fe5b60200260200101518152506040518060c001604052806011898154811061153157fe5b600091825260208220600290910201015481526020016011898154811061155457fe5b906000526020600020906002020160016002811061156e57fe5b01548152602001600181526020016014868154811061158957fe5b60009182526020822060029091020101548152602001601486815481106115ac57fe5b90600052602060002090600202016001600281106115c657fe5b015481526020016001815250600c54600f54600b546040518663ffffffff1660e060020a0281526004016115fe9594939291906175e1565b60606040518083038186803b15801561161657600080fd5b505af415801561162a573d6000803e3d6000fd5b505050506040513d601f19601f8201168201806040525061164e919081019061652d565b6040808701919091526020860191909152908452805160808101909152885173__FastEcMul_____________________________9163fcc8f0729181908c906002870290811061169a57fe5b602002602001015181526020018b85600202600101815181106116b957fe5b602002602001015181526020016000815260200160008152506040518060c001604052808b6000600281106116ea57fe5b602002015181526020018b60016002811061170157fe5b6020020151815260200160018152602001600860006002811061172057fe5b0154815260095460208201526001604091820152600c54600f54600b54925160e060020a63ffffffff881602815261175d959493906004016175e1565b60606040518083038186803b15801561177557600080fd5b505af4158015611789573d6000803e3d6000fd5b505050506040513d601f19601f820116820180604052506117ad919081019061652d565b60408581019182526020808701938452938652805160608101825286518152925193830193909352518183015281518083019092528b5161182f929081908e90600287029081106117fa57fe5b602002602001015181526020018d856002026001018151811061181957fe5b6020026020010151815250600c54600b54614c0d565b604080860191909152602085019190915290835283810151600b54915160e260020a6306d53e0902815273__EC____________________________________92631b54f824926118849290919060040161790f565b60206040518083038186803b15801561189c57600080fd5b505af41580156118b0573d6000803e3d6000fd5b505050506040513d601f19601f820116820180604052506118d4919081019061647f565b8582815181106118e057fe5b60200260200101516001600381106118f457fe5b6020020152604080830151600b54915160e260020a6306d53e0902815273__EC____________________________________92631b54f8249261193c9290919060040161790f565b60206040518083038186803b15801561195457600080fd5b505af4158015611968573d6000803e3d6000fd5b505050506040513d601f19601f8201168201806040525061198c919081019061647f565b85828151811061199857fe5b60200260200101516002600381106119ac57fe5b602002015260010161120d565b5060606002805490506003026040519080825280602002602001820160405280156119ee578160200160208202803883390190505b50905060005b600254811015611acb57858181518110611a0a57fe5b6020026020010151600060038110611a1e57fe5b6020020151828260030281518110611a3257fe5b602002602001018181525050858181518110611a4a57fe5b6020026020010151600160038110611a5e57fe5b6020020151828260030260010181518110611a7557fe5b602002602001018181525050858181518110611a8d57fe5b6020026020010151600260038110611aa157fe5b6020020151828260030260020181518110611ab857fe5b60209081029190910101526001016119f4565b509450505050505b949350505050565b336000818152601b602052604090205460ff16611b0d5760405160e560020a62461bcd02815260040161098c906177bf565b60075460039060ff166005811115611b2157fe5b816005811115611b2d57fe5b14611b4d5760405160e560020a62461bcd02815260040161098c9061780f565b611b5860185461320e565b15611b785760405160e560020a62461bcd02815260040161098c9061787f565b6002805489519102148015611b9257506002805488519102145b8015611ba357506002805487519102145b8015611bb457506002805486519102145b611bd35760405160e560020a62461bcd02815260040161098c9061772f565b6000805b600254811015611ce857600080888360020260010181518110611bf657fe5b60200260200101511215611c3a57600a5480611c0e57fe5b600e54898460020260010181518110611c2357fe5b602002602001015160000309600a54039050611c65565b600a5480611c4457fe5b600e54898460020260010181518110611c5957fe5b60200260200101510990505b6000888360020281518110611c7657fe5b60200260200101511215611cb557600a5480611c8e57fe5b81898460020281518110611c9e57fe5b6020026020010151600003600a5401089050611cdb565b600a5480611cbf57fe5b81898460020281518110611ccf57fe5b60200260200101510890505b9190911890600101611bd7565b50611d53611d3f8a8a604051602001611d0292919061758e565b60405160208183030381529060405280519060200120604051602001611d2891906175a6565b604051602081830303815290604052600454614e5a565b611d4e83600102600454614ee9565b614f31565b611d725760405160e560020a62461bcd02815260040161098c9061786f565b336000908152601d6020526040902054611d8a615bd2565b611d92615bf0565b60005b6002548110156126185773__FastEcMul_____________________________63fcc8f07260405180608001604052808e8560020281518110611dd357fe5b602002602001015181526020018e8560020260010181518110611df257fe5b602002602001015181526020018d8560020281518110611e0e57fe5b602002602001015160000381526020018d8560020260010181518110611e3057fe5b60200260200101516000038152506040518060c001604052806008600060028110611e5757fe5b0154815260200160086001015481526020016001815260200160108981548110611e7d57fe5b6000918252602082206002909102010154815260200160108981548110611ea057fe5b9060005260206000209060020201600160028110611eba57fe5b015481526020016001815250600c54600f54600b546040518663ffffffff1660e060020a028152600401611ef29594939291906175e1565b60606040518083038186803b158015611f0a57600080fd5b505af4158015611f1e573d6000803e3d6000fd5b505050506040513d601f19601f82011682018060405250611f42919081019061652d565b60408601819052602086018290528286528a5173__EC____________________________________9363cc906d0993909290918d9060038802908110611f8457fe5b6020026020010151600b546040518663ffffffff1660e060020a028152600401611fb2959493929190617952565b60606040518083038186803b158015611fca57600080fd5b505af4158015611fde573d6000803e3d6000fd5b505050506040513d601f19601f82011682018060405250612002919081019061652d565b6040860152602085015283528c518d906002830290811061201f57fe5b60200260200101518360006003811061203457fe5b602002015114801561206f57508c816002026001018151811061205357fe5b60200260200101518360016003811061206857fe5b6020020151145b61208e5760405160e560020a62461bcd02815260040161098c9061788f565b73__FastEcMul_____________________________63fcc8f07260405180608001604052808e85600202815181106120c257fe5b602002602001015181526020018e85600202600101815181106120e157fe5b602002602001015181526020018d85600202815181106120fd57fe5b602002602001015181526020018d856002026001018151811061211c57fe5b60200260200101518152506040518060c001604052806011898154811061213f57fe5b600091825260208220600290910201015481526020016011898154811061216257fe5b906000526020600020906002020160016002811061217c57fe5b01548152602001600181526020016014868154811061219757fe5b60009182526020822060029091020101548152602001601486815481106121ba57fe5b90600052602060002090600202016001600281106121d457fe5b015481526020016001815250600c54600f54600b546040518663ffffffff1660e060020a02815260040161220c9594939291906175e1565b60606040518083038186803b15801561222457600080fd5b505af4158015612238573d6000803e3d6000fd5b505050506040513d601f19601f8201168201806040525061225c919081019061652d565b60408087019190915260208601919091529084528051608081019091528a5173__FastEcMul_____________________________9163fcc8f0729181908e90600287029081106122a857fe5b602002602001015181526020018d85600202600101815181106122c757fe5b602002602001015181526020016000815260200160008152506040518060c001604052808d6000600281106122f857fe5b602002015181526020018d60016002811061230f57fe5b6020020151815260200160018152602001600860006002811061232e57fe5b0154815260095460208201526001604091820152600c54600f54600b54925160e060020a63ffffffff881602815261236b959493906004016175e1565b60606040518083038186803b15801561238357600080fd5b505af4158015612397573d6000803e3d6000fd5b505050506040513d601f19601f820116820180604052506123bb919081019061652d565b604085810191909152602080860192835292855280516060810182528551815291519282019290925261242e918101846002602002015181525060405180604001604052808f856002028151811061240f57fe5b602002602001015181526020018f856002026001018151811061181957fe5b604080860191909152602080860192909252918452845190850151918501518a5173__EC____________________________________9363cc906d09939290918d906003880260010190811061248057fe5b6020026020010151600b546040518663ffffffff1660e060020a0281526004016124ae959493929190617952565b60606040518083038186803b1580156124c657600080fd5b505af41580156124da573d6000803e3d6000fd5b505050506040513d601f19601f820116820180604052506124fe919081019061652d565b604080870191909152602080870192909252918552835190840151918401518a5173__EC____________________________________9363cc906d09939290918d906003880260020190811061255057fe5b6020026020010151600b546040518663ffffffff1660e060020a02815260040161257e959493929190617952565b60606040518083038186803b15801561259657600080fd5b505af41580156125aa573d6000803e3d6000fd5b505050506040513d601f19601f820116820180604052506125ce919081019061652d565b6040850152602084015280835283511480156125f1575060208083015190840151145b6126105760405160e560020a62461bcd02815260040161098c906177ff565b600101611d95565b50604080518082018252895181526020808b0151818301526000868152601290915291909120612649916002615c0e565b506013805460010190819055601054141561266c576007805460ff191660051790555b505050505050505050505050565b60215481565b60075460019060ff16600581111561269457fe5b8160058111156126a057fe5b146126c05760405160e560020a62461bcd02815260040161098c9061780f565b6126cb60165461320e565b6126ea5760405160e560020a62461bcd02815260040161098c9061778f565b6007805460ff191660021790556040517f56a86e96776f41a0e407bf3178532efdb06cd42dce862f9ebe56b01e119016a390600090a1506019544201601755565b606080865160405190808252806020026020018201604052801561276957816020015b612756615c4c565b81526020019060019003908161274e5790505b50905060005b87518110156128b4576128956010878154811061278857fe5b906000526020600020906002020160108a84815181106127a457fe5b6020026020010151815481106127b657fe5b906000526020600020906002020160405180604001604052808b86600202815181106127de57fe5b602002602001015181526020018b86600202600101815181106127fd57fe5b602002602001015181525060405180604001604052808a876002028151811061282257fe5b602002602001015181526020018a876002026001018151811061284157fe5b602002602001015181525060405180604001604052808a886002028151811061286657fe5b602002602001015181526020018a886002026001018151811061288557fe5b6020026020010151815250614fc1565b8282815181106128a157fe5b602090810291909101015260010161276f565b50606087516003026040519080825280602002602001820160405280156128e5578160200160208202803883390190505b50905060005b885181101561297e5782818151811061290057fe5b602002602001015160006002811061291457fe5b602002015182826002028151811061292857fe5b60200260200101818152505082818151811061294057fe5b602002602001015160016002811061295457fe5b602002015182826002026001018151811061296b57fe5b60209081029190910101526001016128eb565b50979650505050505050565b6008816002811061299757fe5b0154905081565b6023816003811061299757fe5b6012602052816000526040600020816002811061092e57fe5b60075460049060ff1660058111156129d857fe5b8160058111156129e457fe5b14612a045760405160e560020a62461bcd02815260040161098c9061780f565b6000828152601e6020526040902054829060ff1615612a385760405160e560020a62461bcd02815260040161098c9061773f565b336000908152601d60205260409020548314612a695760405160e560020a62461bcd02815260040161098c9061771f565b600083815260126020526040902054612a975760405160e560020a62461bcd02815260040161098c9061779f565b8451845160020214612aa857600080fd5b60005b8451811015612f595760126000868381518110612ac457fe5b60200260200101518152602001908152602001600020600060028110612ae657fe5b015415612b085760405160e560020a62461bcd02815260040161098c9061776f565b612cf160405180604001604052808d8460020281518110612b2557fe5b602002602001015181526020018d8460020260010181518110612b4457fe5b602002602001015181525060108681548110612b5c57fe5b90600052602060002090600202016010888581518110612b7857fe5b602002602001015181548110612b8a57fe5b906000526020600020906002020160405180604001604052808f8760020281518110612bb257fe5b602002602001015181526020018f8760020260010181518110612bd157fe5b602002602001015181525060405180604001604052808f8860020281518110612bf657fe5b602002602001015181526020018f8860020260010181518110612c1557fe5b602002602001015181525060405180604001604052808f8960020281518110612c3a57fe5b602002602001015181526020018f8960020260010181518110612c5957fe5b602002602001015181525060405180604001604052808f8a60020281518110612c7e57fe5b602002602001015181526020018f8a60020260010181518110612c9d57fe5b602002602001015181525060405180604001604052808f8b60020281518110612cc257fe5b602002602001015181526020018f8b60020260010181518110612ce157fe5b6020026020010151815250615369565b83858281518110612cfe57fe5b60200260200101511015612e025773__EC____________________________________637559d550878360020281518110612d3557fe5b6020026020010151888460020260010181518110612d4f57fe5b6020026020010151600b546040518463ffffffff1660e060020a028152600401612d7b9392919061792a565b604080518083038186803b158015612d9257600080fd5b505af4158015612da6573d6000803e3d6000fd5b505050506040513d601f19601f82011682018060405250612dca91908101906164fd565b878360020281518110612dd957fe5b60200260200101888460020260010181518110612df257fe5b6020908102919091010191909152525b60008481526012602052604090208054600190910154875173__EC____________________________________9263c5e45aa49290918a9060028702908110612e4757fe5b60200260200101518a8660020260010181518110612e6157fe5b6020026020010151600c54600b546040518763ffffffff1660e060020a028152600401612e9396959493929190617994565b604080518083038186803b158015612eaa57600080fd5b505af4158015612ebe573d6000803e3d6000fd5b505050506040513d601f19601f82011682018060405250612ee291908101906164fd565b60008681526012602052604090206001810191909155558015801590612f315750848181518110612f0f57fe5b6020026020010151856001830381518110612f2657fe5b602002602001015110155b15612f515760405160e560020a62461bcd02815260040161098c9061777f565b600101612aab565b50601554845114612f7f5760405160e560020a62461bcd02815260040161098c906176ef565b601f8054600190810182556000858152601e60205260409020805460ff1916909117905554601554601054031415612fbf576007805460ff191660051790555b6000838152601260205260409081902090517f6cd6c478a5829a4653c16a4f709e74980adf4a63f2c3ff42f55f01cd8374fb9891612ffc91617650565b60405180910390a150505050505050505050565b600154600160a060020a031681565b600354600160a060020a0316331461304c5760405160e560020a62461bcd02815260040161098c9061785f565b60075460029060ff16600581111561306057fe5b81600581111561306c57fe5b1461308c5760405160e560020a62461bcd02815260040161098c9061780f565b60215415801561309c5750602654155b6130bb5760405160e560020a62461bcd02815260040161098c9061770f565b60225460105410156130e25760405160e560020a62461bcd02815260040161098c9061784f565b6130ea615bd2565b5060408051606081018252600854815260095460208201526001918101919091526022546010548161311857fe5b06156131655760268054600181018083556000929092526131629060039081027f744a2cf8fd7008e3d53b67916e73460df9fa5214e3ef23dd4259ca09493a359401908490615c6a565b50505b60015b60105481101561320957602254600182038161318057fe5b066022546010805490508161319157fe5b0614156131df5760268054600181018083556000929092526131dc9060039081027f744a2cf8fd7008e3d53b67916e73460df9fa5214e3ef23dd4259ca09493a359401908590615c6a565b50505b601080546131f5918491848103908110610c3157fe5b604085015260208401528252600101613168565b505050565b60008142111561322057506001613224565b5060005b919050565b60606010805480602002602001604051908101604052809291908181526020016000905b8282101561329d5760008481526020902060408051808201918290529160028581029091019182845b8154815260200190600101908083116132765750505050508152602001906001019061324d565b50505050905090565b600a5481565b601a5490565b600f5481565b6014828154811061091557fe5b6010828154811061091557fe5b601a81815481106132df57fe5b600091825260209091200154600160a060020a0316905081565b60165481565b60135490565b600354600160a060020a031633146133325760405160e560020a62461bcd02815260040161098c9061785f565b60075460029060ff16600581111561334657fe5b81600581111561335257fe5b146133725760405160e560020a62461bcd02815260040161098c9061780f565b61337d60175461320e565b1561339d5760405160e560020a62461bcd02815260040161098c906178ff565b6026546133bf5760405160e560020a62461bcd02815260040161098c9061774f565b815160225414806133dd57508151602254601054816133da57fe5b06145b6133fc5760405160e560020a62461bcd02815260040161098c906176ff565b8251602254148061341a575082516022546010548161341757fe5b06145b6134395760405160e560020a62461bcd02815260040161098c9061789f565b613441615bd2565b6040805160608101918290529060239060039082845b815481526020019060010190808311613457575050505050905060606022546040519080825280602002602001820160405280156134af57816020015b61349c615bd2565b8152602001906001900390816134945790505b506010546022546021549293506000920111156134db57602254601054816134d357fe5b066022540390505b60266001602254602154816134ec57fe5b046026805490500303815481106134ff57fe5b60009182526020909120604080516060810191829052926003908102909201919082845b8154815260200190600101908083116135235750505050508260018360225403038151811061354e57fe5b6020908102919091010152600181015b60225481101561361f5760008160225403905061359984828151811061358057fe5b60200260200101516010836021540181548110610c3157fe5b8660018503815181106135a857fe5b60200260200101516000600381106135bc57fe5b602002018760018603815181106135cf57fe5b60200260200101516001600381106135e357fe5b602002018860018703815181106135f657fe5b602002602001015160026003811061360a57fe5b6020020192909252919052525060010161355e565b5060225460215460105491019081111561363857506010545b613640615bd2565b6021545b828110156138fc578015613673576136668660106001840381548110610c3157fe5b6040890152602088015286525b85516020870151604088015160225473__EC____________________________________9363ea39f4cb93909290918a9087816136ac57fe5b06815181106136b757fe5b60200260200101516000600381106136cb57fe5b60200201518a60225488816136dc57fe5b06815181106136e757fe5b60200260200101516001600381106136fb57fe5b60200201518b602254898161370c57fe5b068151811061371757fe5b602002602001015160026003811061372b57fe5b60200201518f6021548a038151811061374057fe5b6020026020010151600b546040518963ffffffff1660e060020a028152600401613771989796959493929190617a56565b60606040518083038186803b15801561378957600080fd5b505af415801561379d573d6000803e3d6000fd5b505050506040513d601f19601f820116820180604052506137c1919081019061652d565b60408501819052602085018290528285526021548c5173__EC____________________________________9463cc906d09949093909290918f91880390811061380657fe5b6020026020010151600b546040518663ffffffff1660e060020a028152600401613834959493929190617952565b60606040518083038186803b15801561384c57600080fd5b505af4158015613860573d6000803e3d6000fd5b505050506040513d601f19601f82011682018060405250613884919081019061652d565b6040858101919091526020808601928352928552805180820190915284518152905191810191909152601180546001810180835560009290925290916138f29160029081027f31ecc21a745e3968a04e9570e4425bc18fa8019c68028196b546d1669c200c68019190615c0e565b5050600101613644565b5061390a6023866003615c6a565b5060225460218054909101905560105482141561393c5760006021556007805460ff1916600317905560195442016018555b6040517f8b584667429d5c48654e025beac9b4c9d09ec635745461a9ce032a8013163c1590600090a15050505050505050565b601d6020526000908152604090205481565b600354600160a060020a031681565b60075460ff1681565b60195481565b600e5481565b6139ad615c4c565b6139b5615bd2565b50604080516060810182526008548152600954602082015260019181019190915260005b601054811015613ab2576000818152601260205260409020546139fb57613aaa565b613a9d604051806060016040528084600060038110613a1657fe5b6020020151815260200184600160038110613a2d57fe5b6020020151815260200184600260038110613a4457fe5b6020020151815250604051806040016040528060126000868152602001908152602001600020600060028110613a7657fe5b01548152600085815260126020908152604090912060010154910152600c54600b54614c0d565b6040850152602084015282525b6001016139d9565b50613abb615bd2565b506040805160608101825260085481526009546020820152600191810191909152613ae4615bd2565b60005b601454811015613ea55760145460001901811415613c715773__FastEcMul_____________________________63fcc8f0726040518060800160405280898560020281518110613b3357fe5b60200260200101518152602001898560020260010181518110613b5257fe5b602002602001015181526020016000815260200160008152506040518060c0016040528060148681548110613b8357fe5b6000918252602082206002909102010154815260200160148681548110613ba657fe5b9060005260206000209060020201600160028110613bc057fe5b015481526001602082018190526008546040808401919091526009546060840152608090920152600c54600f54600b54925160e060020a63ffffffff8816028152613c10959493906004016175e1565b60606040518083038186803b158015613c2857600080fd5b505af4158015613c3c573d6000803e3d6000fd5b505050506040513d601f19601f82011682018060405250613c60919081019061652d565b604085015260208401528252613e55565b73__FastEcMul_____________________________63fcc8f0726040518060800160405280898560020281518110613ca557fe5b60200260200101518152602001898560020260010181518110613cc457fe5b60200260200101518152602001898560020260020181518110613ce357fe5b60200260200101518152602001898560020260030181518110613d0257fe5b60200260200101518152506040518060c0016040528060148681548110613d2557fe5b6000918252602082206002909102010154815260200160148681548110613d4857fe5b9060005260206000209060020201600160028110613d6257fe5b015481526020016001815260200160148660010181548110613d8057fe5b6000918252602082206002909102010154815260200160148660010181548110613da657fe5b9060005260206000209060020201600160028110613dc057fe5b015481526020016001815250600c54600f54600b546040518663ffffffff1660e060020a028152600401613df89594939291906175e1565b60606040518083038186803b158015613e1057600080fd5b505af4158015613e24573d6000803e3d6000fd5b505050506040513d601f19601f82011682018060405250613e48919081019061652d565b6040850152602084015282525b613e918360005b602002015184600160200201518560026020020151856000602002015186600160200201518760026020020151600b5461583e565b604086015260208501528352600201613ae7565b50613eae615c4c565b604080850151600b54915160e260020a6306d53e0902815273__EC____________________________________92631b54f82492613ef19290919060040161790f565b60206040518083038186803b158015613f0957600080fd5b505af4158015613f1d573d6000803e3d6000fd5b505050506040513d601f19601f82011682018060405250613f41919081019061647f565b8152604080840151600b54915160e260020a6306d53e0902815273__EC____________________________________92631b54f82492613f869290919060040161790f565b60206040518083038186803b158015613f9e57600080fd5b505af4158015613fb2573d6000803e3d6000fd5b505050506040513d601f19601f82011682018060405250613fd6919081019061647f565b602082015295945050505050565b60045481565b336000818152601c602052604090205460ff1661401c5760405160e560020a62461bcd02815260040161098c906178df565b60075460019060ff16600581111561403057fe5b81600581111561403c57fe5b1461405c5760405160e560020a62461bcd02815260040161098c9061780f565b6103e834146140805760405160e560020a62461bcd02815260040161098c9061775f565b82516020840151600c54600d54600b546040517f37103a6700000000000000000000000000000000000000000000000000000000815273__EC____________________________________956337103a67956140e795919490939192909190600401617952565b60206040518083038186803b1580156140ff57600080fd5b505af4158015614113573d6000803e3d6000fd5b505050506040513d601f19601f820116820180604052506141379190810190616443565b6141565760405160e560020a62461bcd02815260040161098c9061781f565b60108054336000908152601d60205260408120829055600182018084559290526141a99060029081027f1b6847dc741a1b0cd08d278845f9d819d87b734759afb55fe2de5cb82a9ae67201908690615c0e565b5050336000908152600660209081526040808320805434019055601b9091529020805460ff19166001179055601a546010541415613209576007805460ff1916600217905560195442016017556040517f56a86e96776f41a0e407bf3178532efdb06cd42dce862f9ebe56b01e119016a390600090a1505050565b60025490565b601b6020526000908152604090205460ff1681565b60105490565b60185481565b6015818154811061425857fe5b600091825260209091200154905081565b600354600160a060020a031633146142965760405160e560020a62461bcd02815260040161098c9061785f565b60075460009060ff1660058111156142aa57fe5b8160058111156142b657fe5b146142d65760405160e560020a62461bcd02815260040161098c9061780f565b6127103410156142fb5760405160e560020a62461bcd02815260040161098c906177cf565b60005b825181101561440f57601c600084838151811061431757fe5b602090810291909101810151600160a060020a031682528101919091526040016000205460ff161561435e5760405160e560020a62461bcd02815260040161098c906177df565b6001601c600085848151811061437057fe5b6020026020010151600160a060020a0316600160a060020a0316815260200190815260200160002060006101000a81548160ff021916908315150217905550601a8382815181106143bd57fe5b602090810291909101810151825460018082018555600094855292909320909201805473ffffffffffffffffffffffffffffffffffffffff1916600160a060020a0390931692909217909155016142fe565b5050600354600160a060020a031660009081526006602052604090203490556007805460ff19166001179055601954905142910201601655565b601c6020526000908152604090205460ff1681565b614466615c4c565b50604080518082018252600083815260126020818152938220805484529490915282526001909201549082015290565b6005818154811061425857fe5b600b5481565b600c5481565b600354600160a060020a031633146144dc5760405160e560020a62461bcd02815260040161098c9061785f565b60075460059060ff16818111156144ef57fe5b8160058111156144fb57fe5b1461451b5760405160e560020a62461bcd02815260040161098c9061780f565b82516002805402146145425760405160e560020a62461bcd02815260040161098c906178af565b61454a615bd2565b50604080516060810182526008548152600954602082015260019181019190915260005b6010548110156145c057600081815260126020526040902054614590576145b8565b6145ab604051806060016040528084600060038110613a1657fe5b6040850152602084015282525b60010161456e565b506145c9615bd2565b5060408051606081018252600854815260095460208201526001918101919091526145f2615bd2565b60005b601454811015614a22576014546000190181141561477f5773__FastEcMul_____________________________63fcc8f07260405180608001604052808a856002028151811061464157fe5b602002602001015181526020018a856002026001018151811061466057fe5b602002602001015181526020016000815260200160008152506040518060c001604052806014868154811061469157fe5b60009182526020822060029091020101548152602001601486815481106146b457fe5b90600052602060002090600202016001600281106146ce57fe5b015481526001602082018190526008546040808401919091526009546060840152608090920152600c54600f54600b54925160e060020a63ffffffff881602815261471e959493906004016175e1565b60606040518083038186803b15801561473657600080fd5b505af415801561474a573d6000803e3d6000fd5b505050506040513d601f19601f8201168201806040525061476e919081019061652d565b6040850152602084015282526149b6565b73__FastEcMul_____________________________63fcc8f07260405180608001604052808a85600202815181106147b357fe5b602002602001015181526020018a85600202600101815181106147d257fe5b602002602001015181526020018a85600202600201815181106147f157fe5b602002602001015181526020018a856002026003018151811061481057fe5b60200260200101518152506040518060c001604052806014868154811061483357fe5b600091825260208220600290910201015481526020016014868154811061485657fe5b906000526020600020906002020160016002811061487057fe5b01548152602001600181526020016014866001018154811061488e57fe5b60009182526020822060029091020101548152602001601486600101815481106148b457fe5b90600052602060002090600202016001600281106148ce57fe5b015481526020016001815250600c54600f54600b546040518663ffffffff1660e060020a0281526004016149069594939291906175e1565b60606040518083038186803b15801561491e57600080fd5b505af4158015614932573d6000803e3d6000fd5b505050506040513d601f19601f82011682018060405250614956919081019061652d565b604085015260208401528252865187906002830260030190811061497657fe5b602002602001015187826002026002018151811061499057fe5b602002602001015102600582600101815481106149a957fe5b6000918252602090912001555b8681600202600101815181106149c857fe5b60200260200101518782600202815181106149df57fe5b602002602001015102600582815481106149f557fe5b6000918252602082200191909155614a0e908490613e5c565b6040860152602085015283526002016145f5565b50825160208401516040808601518851600b54925160e060020a63cc906d0902815273__EC____________________________________9563cc906d0995614a7595919490939092909190600401617952565b60606040518083038186803b158015614a8d57600080fd5b505af4158015614aa1573d6000803e3d6000fd5b505050506040513d601f19601f82011682018060405250614ac5919081019061652d565b6040808701919091526020808701929092529185528351848201518584015192890151600b54945160e060020a63cc906d0902815273__EC____________________________________9563cc906d0995614b299594939092909190600401617952565b60606040518083038186803b158015614b4157600080fd5b505af4158015614b55573d6000803e3d6000fd5b505050506040513d601f19601f82011682018060405250614b79919081019061652d565b604085015260208401528083528351148015614b9c575060208083015190840151145b614bbb5760405160e560020a62461bcd02815260040161098c9061783f565b7ff7288dd483c6d2c81f41603bbf6ce67b533dea93ddc3a69994451ced1b70ee7d6005604051614beb9190617631565b60405180910390a1505050505050565b60066020526000908152604090205481565b600080808660026020020151614c30575050835160208501519091506001614e50565b6020860151614c5057505084516020860151604087015191925090614e50565b614c58615bd2565b614c60615c4c565b8580614c6857fe5b60408a0151800981528580614c7957fe5b815160408b0151096020820152614c8e615c97565b604080516080810182528b5181526020808d0151908201529081018880614cb157fe5b84518c510981526020018880614cc357fe5b602080860151908d0151099052604081015181519192501415614d39576060810151602082015114614d1257505060008082526020820181905260409091018190529250829150819050614e50565b895160208b015160408c0151614d2b9291908b8b615aa0565b955095509550505050614e50565b60008780614d4357fe5b82516040840151908a039008905060008880614d5b57fe5b60208401516060850151908b039008905060008980614d7657fe5b838409905060008a80614d8557fe5b848309905060008b80614d9457fe5b828d038d80614d9f57fe5b8687090890508b80614dad57fe5b8c80614db557fe5b8d80614dbd57fe5b88518690096002098d03820880895290508b80614dd657fe5b8c80614dde57fe5b828e038e80614de957fe5b895187900908850960208901528b80614dfe57fe5b8c80614e0657fe5b60208801518490098d0389600160200201510860208901528b80614e2657fe5b8f600260200201518609604089018190528851602090990151989b50979950969750505050505050505b9450945094915050565b606080826040519080825280601f01601f191660200182016040528015614e88576020820181803883390190505b50905060005b83811015614edf57848181518110614ea257fe5b602001015160f860020a900460f860020a02828281518110614ec057fe5b6020010190600160f860020a031916908160001a905350600101614e8e565b5090505b92915050565b604051606090600883026101000360020a8402908290614f0d9083906020016175a6565b6040516020818303038152906040529050614f288185614e5a565b95945050505050565b60008151835114614f4457506000614ee3565b60005b8351811015614fb757828181518110614f5c57fe5b602001015160f860020a900460f860020a02600160f860020a031916848281518110614f8457fe5b602001015160f860020a900460f860020a02600160f860020a03191614614faf576000915050614ee3565b600101614f47565b5060019392505050565b614fc9615c4c565b614fd1615bd2565b614fd9615c4c565b73__FastEcMul_____________________________63fcc8f07260405180608001604052808860006002811061500b57fe5b602002015181526020018860016002811061502257fe5b602002015181526020018760006002811061503957fe5b602002015160000381526020018760016002811061505357fe5b60200201516000038152506040518060c00160405280600860006002811061507757fe5b015481526009546020820152600160408083018290528e5460608401528e820154608084015260a090920152600c54600f54600b54925160e060020a63ffffffff88160281526150cc959493906004016175e1565b60606040518083038186803b1580156150e457600080fd5b505af41580156150f8573d6000803e3d6000fd5b505050506040513d601f19601f8201168201806040525061511c919081019061652d565b60408086018290526020860192909252918452600b54905160e260020a6306d53e0902815273__EC____________________________________92631b54f824926151699260040161790f565b60206040518083038186803b15801561518157600080fd5b505af4158015615195573d6000803e3d6000fd5b505050506040513d601f19601f820116820180604052506151b9919081019061647f565b815260408051608081018252865181526020808801518183015286516000908103838501529087015181036060830152825160c0810190935273__FastEcMul_____________________________9263fcc8f072929181908c0154815260018c81015460208084019190915260408084018390528d516060850152908d0151608084015260a090920152600c54600f54600b54925160e060020a63ffffffff881602815261526c959493906004016175e1565b60606040518083038186803b15801561528457600080fd5b505af4158015615298573d6000803e3d6000fd5b505050506040513d601f19601f820116820180604052506152bc919081019061652d565b60408086018290526020860192909252918452600b54905160e260020a6306d53e0902815273__EC____________________________________92631b54f824926153099260040161790f565b60206040518083038186803b15801561532157600080fd5b505af4158015615335573d6000803e3d6000fd5b505050506040513d601f19601f82011682018060405250615359919081019061647f565b6020820152979650505050505050565b615371615bd2565b60008888868660405160200161538a9493929190617546565b60408051601f1981840301815290829052805160209091012091507f6bb220b0ab5d65ae8bd73fc5b909fb0e4da13cda9a9ea7e64309b23eac4b9a0d906153d29083906176d0565b60405180910390a173__FastEcMul_____________________________63fcc8f07260405180608001604052808a60006002811061540c57fe5b602002015181526020018a60016002811061542357fe5b602002015181526020018960006002811061543a57fe5b602002015160000381526020018960016002811061545457fe5b60200201516000038152506040518060c00160405280600860006002811061547857fe5b015481526009546020820152600160408083018290528f5460608401528f820154608084015260a090920152600c54600f54600b54925160e060020a63ffffffff88160281526154cd959493906004016175e1565b60606040518083038186803b1580156154e557600080fd5b505af41580156154f9573d6000803e3d6000fd5b505050506040513d601f19601f8201168201806040525061551d919081019061652d565b6040808601829052602086018390528386528d51600b54915160e060020a63cc906d0902815273__EC____________________________________9563cc906d099561557195919490939192600401617952565b60606040518083038186803b15801561558957600080fd5b505af415801561559d573d6000803e3d6000fd5b505050506040513d601f19601f820116820180604052506155c1919081019061652d565b6040850152602084015280835285511480156155e4575060208086015190830151145b6156035760405160e560020a62461bcd02815260040161098c906178cf565b73__FastEcMul_____________________________63fcc8f07260405180608001604052808a60006002811061563557fe5b602002015181526020018a60016002811061564c57fe5b602002015181526020018960006002811061566357fe5b602002015160000381526020018960016002811061567d57fe5b60200201516000038152506040518060c001604052808c6000600281106156a057fe5b0154815260018d81015460208084019190915260408084018390528a516060850152908a0151608084015260a090920152600c54600f54600b54925160e060020a63ffffffff88160281526156fa959493906004016175e1565b60606040518083038186803b15801561571257600080fd5b505af4158015615726573d6000803e3d6000fd5b505050506040513d601f19601f8201168201806040525061574a919081019061652d565b604080860182905260208087018490528487528e0151600b54915160e060020a63cc906d0902815273__EC____________________________________9563cc906d09956157a095919490939192600401617952565b60606040518083038186803b1580156157b857600080fd5b505af41580156157cc573d6000803e3d6000fd5b505050506040513d601f19601f820116820180604052506157f0919081019061652d565b604085015260208401528083528451148015615813575060208085015190830151145b6158325760405160e560020a62461bcd02815260040161098c906177af565b50505050505050505050565b600080808915801561584e575088155b15615860575085915084905083615a93565b8615801561586c575085155b1561587e575088915087905086615a93565b615886615c97565b848061588e57fe5b898a098152848061589b57fe5b81518a09602082015284806158ac57fe5b868709604082015284806158bc57fe5b60408201518709606082015260408051608081019091528086806158dc57fe5b60408401518e09815260200186806158f057fe5b60608401518d098152602001868061590457fe5b83518b098152602001868061591557fe5b60208401518a0990526040810151815191925014156159735760608101516020820151146159585760405160e560020a62461bcd02815260040161098c906178ef565b60405160e560020a62461bcd02815260040161098c906178bf565b61597b615c97565b858061598357fe5b8251604084015190880390088152858061599957fe5b602083015160608401519088039008602082015285806159b557fe5b81518009604082015285806159c657fe5b81516040830151096060820152600086806159dd57fe5b6060830151880388806159ec57fe5b6020850151800908905086806159fe57fe5b8780615a0657fe5b8880615a0e57fe5b604085015186510960020988038208905060008780615a2957fe5b8880615a3157fe5b838a038a80615a3c57fe5b60408701518851090860208501510990508780615a5557fe5b8880615a5d57fe5b606085015160208701510989038208905060008880615a7857fe5b8980615a8057fe5b8b8f098551099297509095509093505050505b9750975097945050505050565b6000808085615ab6575086915085905084615bc7565b615abe615bd2565b8480615ac657fe5b898a0981528480615ad357fe5b88890960208201528480615ae357fe5b878809604082015260008580615af557fe5b8680615afd57fe5b60208401518c09600409905060008680615b1357fe5b8780615b1b57fe5b8880615b2357fe5b604086015180098a098880615b3457fe5b855160030908905060008780615b4657fe5b8880615b4e57fe5b84850889038980615b5b57fe5b84850908905060008880615b6b57fe5b8980615b7357fe5b8a80615b7b57fe5b602088015180096008098a038a80615b8f57fe5b8b80615b9757fe5b858d038808860908905060008980615bab57fe5b8a80615bb357fe5b8d8f09600209929850909650909450505050505b955095509592505050565b60405180606001604052806003906020820280388339509192915050565b6040518060c001604052806006906020820280388339509192915050565b8260028101928215615c3c579160200282015b82811115615c3c578251825591602001919060010190615c21565b50615c48929150615cb5565b5090565b60405180604001604052806002906020820280388339509192915050565b8260038101928215615c3c5791602002820182811115615c3c578251825591602001919060010190615c21565b60405180608001604052806004906020820280388339509192915050565b6110ae91905b80821115615c485760008155600101615cbb565b8035614ee381617c06565b600082601f830112615ceb57600080fd5b8135615cfe615cf982617af4565b617acd565b91508181835260208401935060208101905083856020840282011115615d2357600080fd5b60005b83811015615d4f5781615d398882615ccf565b8452506020928301929190910190600101615d26565b5050505092915050565b600082601f830112615d6a57600080fd5b8135615d78615cf982617af4565b91508181835260208401935060208101905083856020840282011115615d9d57600080fd5b60005b83811015615d4f5781615db38882615f06565b8452506020928301929190910190600101615da0565b600082601f830112615dda57600080fd5b6002615de8615cf982617b15565b91508183856020840282011115615dfe57600080fd5b60005b83811015615d4f5781615e148882615f06565b8452506020928301929190910190600101615e01565b600082601f830112615e3b57600080fd5b6003615e49615cf982617b15565b91508183856020840282011115615e5f57600080fd5b60005b83811015615d4f5781615e758882615f06565b8452506020928301929190910190600101615e62565b600082601f830112615e9c57600080fd5b8135615eaa615cf982617af4565b91508181835260208401935060208101905083856020840282011115615ecf57600080fd5b60005b83811015615d4f5781615ee58882615f06565b8452506020928301929190910190600101615ed2565b8051614ee381617c1a565b8035614ee381617c23565b8051614ee381617c23565b600060208284031215615f2e57600080fd5b6000611ad38484615ccf565b600060208284031215615f4c57600080fd5b813567ffffffffffffffff811115615f6357600080fd5b611ad384828501615cda565b600060208284031215615f8157600080fd5b813567ffffffffffffffff811115615f9857600080fd5b611ad384828501615d59565b60008060608385031215615fb757600080fd5b823567ffffffffffffffff811115615fce57600080fd5b615fda85828601615d59565b9250506020615feb85828601615dc9565b9150509250929050565b60006040828403121561600757600080fd5b6000611ad38484615dc9565b60008060008060a0858703121561602957600080fd5b843567ffffffffffffffff81111561604057600080fd5b61604c87828801615e8b565b945050602085013567ffffffffffffffff81111561606957600080fd5b61607587828801615d59565b935050604085013567ffffffffffffffff81111561609257600080fd5b61609e87828801615d59565b92505060606160af87828801615dc9565b91505092959194509250565b600080600080600080600080610100898b0312156160d857600080fd5b883567ffffffffffffffff8111156160ef57600080fd5b6160fb8b828c01615e8b565b985050602089013567ffffffffffffffff81111561611857600080fd5b6161248b828c01615d59565b975050604089013567ffffffffffffffff81111561614157600080fd5b61614d8b828c01615d59565b965050606089013567ffffffffffffffff81111561616a57600080fd5b6161768b828c01615e8b565b955050608089013567ffffffffffffffff81111561619357600080fd5b61619f8b828c01615e8b565b94505060a089013567ffffffffffffffff8111156161bc57600080fd5b6161c88b828c01615e8b565b93505060c089013567ffffffffffffffff8111156161e557600080fd5b6161f18b828c01615e8b565b92505060e06162028b828c01615f06565b9150509295985092959890939650565b6000806040838503121561622557600080fd5b823567ffffffffffffffff81111561623c57600080fd5b61624885828601615e8b565b925050602083013567ffffffffffffffff81111561626557600080fd5b615feb85828601615e8b565b60008060008060008060e0878903121561628a57600080fd5b863567ffffffffffffffff8111156162a157600080fd5b6162ad89828a01615e8b565b965050602087013567ffffffffffffffff8111156162ca57600080fd5b6162d689828a01615e8b565b955050604087013567ffffffffffffffff8111156162f357600080fd5b6162ff89828a01615d59565b945050606087013567ffffffffffffffff81111561631c57600080fd5b61632889828a01615d59565b935050608061633989828a01615dc9565b92505060c087013567ffffffffffffffff81111561635657600080fd5b61636289828a01615e8b565b9150509295509295509295565b600080600080600060a0868803121561638757600080fd5b853567ffffffffffffffff81111561639e57600080fd5b6163aa88828901615e8b565b955050602086013567ffffffffffffffff8111156163c757600080fd5b6163d388828901615e8b565b94505060406163e488828901615f06565b935050606086013567ffffffffffffffff81111561640157600080fd5b61640d88828901615d59565b925050608086013567ffffffffffffffff81111561642a57600080fd5b61643688828901615d59565b9150509295509295909350565b60006020828403121561645557600080fd5b6000611ad38484615efb565b60006020828403121561647357600080fd5b6000611ad38484615f06565b60006020828403121561649157600080fd5b6000611ad38484615f11565b600080608083850312156164b057600080fd5b60006164bc8585615f06565b9250506020615feb85828601615e2a565b600080604083850312156164e057600080fd5b60006164ec8585615f06565b9250506020615feb85828601615f06565b6000806040838503121561651057600080fd5b600061651c8585615f11565b9250506020615feb85828601615f11565b60008060006060848603121561654257600080fd5b600061654e8686615f11565b935050602061655f86828701615f11565b925050604061657086828701615f11565b9150509250925092565b6000616586838361674b565b505060400190565b600061659a83836169e9565b505060200190565b6165ab81617b74565b82525050565b60006165bc82617b45565b6165c68185617b6b565b93506165d183617b33565b8060005b838110156165ff5781516165e9888261657a565b97506165f483617b33565b9250506001016165d5565b509495945050505050565b61661381617b49565b61661d8184613224565b9250616628826110ae565b8060005b83811015616656578151616640878261658e565b965061664b83617b33565b92505060010161662c565b505050505050565b600061666982617b4f565b6166738185617b6b565b935061667e83617b39565b8060005b838110156165ff5761669382617be3565b61669d888261658e565b97506166a883617b65565b925050600101616682565b6166bc81617b53565b6166c68184613224565b92506166d1826110ae565b8060005b838110156166565781516166e9878261658e565b96506166f483617b33565b9250506001016166d5565b61670881617b53565b6167128184613224565b925061671d826110ae565b8060005b83811015616656578151616735878261658e565b965061674083617b33565b925050600101616721565b61675481617b53565b61675e8184613224565b9250616769826110ae565b8060005b83811015616656578151616781878261658e565b965061678c83617b33565b92505060010161676d565b6167a081617b53565b6167aa8184613224565b92506167b5826110ae565b8060005b83811015616656576167ca82617be3565b6167d4878261658e565b96506167df83617b65565b9250506001016167b9565b6167f381617b53565b6167fd8184613224565b9250616808826110ae565b8060005b838110156166565761681d82617be3565b616827878261658e565b965061683283617b65565b92505060010161680c565b61684681617b59565b6168508184613224565b925061685b826110ae565b8060005b83811015616656578151616873878261658e565b965061687e83617b33565b92505060010161685f565b61689281617b5f565b61689c8184613224565b92506168a7826110ae565b8060005b838110156166565781516168bf878261658e565b96506168ca83617b33565b9250506001016168ab565b60006168e082617b45565b6168ea8185617b6b565b93506168f583617b33565b8060005b838110156165ff57815161690d888261658e565b975061691883617b33565b9250506001016168f9565b600061692e82617b45565b6169388185613224565b935061694383617b33565b8060005b838110156165ff57815161695b888261658e565b975061696683617b33565b925050600101616947565b600061697c82617b4f565b6169868185617b6b565b935061699183617b39565b8060005b838110156165ff576169a682617be3565b6169b0888261658e565b97506169bb83617b65565b925050600101616995565b6165ab81617b7f565b6165ab6169db826110ae565b6110ae565b6165ab81617b9a565b6165ab816110ae565b60006169fd82617b45565b616a078185617b6b565b9350616a17818560208601617ba5565b616a2081617bef565b9093019392505050565b6000616a37602483617b6b565b7f4e6f7420616c6c206661756c747920494458657320776572652070726f63657381527f7365642e00000000000000000000000000000000000000000000000000000000602082015260400192915050565b6000616a96602d83617b6b565b7f4c656e677468206f66206d6f6420696e7665727365206361636865206172726181527f7920312069732077726f6e672e00000000000000000000000000000000000000602082015260400192915050565b6000616af5602483617b6b565b7f52696768206d61726b6572732068617320616c7265616479206265656e20627581527f696c742e00000000000000000000000000000000000000000000000000000000602082015260400192915050565b6000616b54603c83617b6b565b7f5375626d697474656420696e64657820646f6573206e6f7420636f727265737081527f6f6e6420746f207468652061646472657373206f6620766f7465722e00000000602082015260400192915050565b6000616bb3603e83617b6b565b7f5468652073697a65206f66207468652070726f6f6620646f6573206e6f74206d81527f6174636820746865206e756d626572206f662063616e646964617465732e0000602082015260400192915050565b6000616c12602583617b6b565b7f566f74657220616c7265616479207375626d697474656420626c696e64696e6781527f206b65792e000000000000000000000000000000000000000000000000000000602082015260400192915050565b6000616c71602483617b6b565b7f52696768206d61726b65727320686173206e6f74206265656e206275696c7420815260e160020a633cb2ba1702602082015260400192915050565b6000616cba602283617b6b565b7f496e636f7272656374206465706f7369742073656e74206279206120766f746581527f722e000000000000000000000000000000000000000000000000000000000000602082015260400192915050565b6000616d19602583617b6b565b7f566f746572206d61726b6564206173206661756c7479206973206e6f7420666181527f756c74792e000000000000000000000000000000000000000000000000000000602082015260400192915050565b6000616d78603683617b6b565b7f417363656e646564206f72646572696e67206f66206661756c747920696e646981527f636573206d757374206265207072657365727665642e00000000000000000000602082015260400192915050565b6000616dd7602483617b6b565b7f53696e672d75702074696d656f757420686173206e6f74206578706972656420815260e160020a633cb2ba1702602082015260400192915050565b6000616e20601383617b6b565b7f566f74657220646964206e6f7420766f74652e00000000000000000000000000815260200192915050565b6000616e59603283617b6b565b7f46542050726f6f6620766572696669636174696f6e206661696c65642061742081527f74686520326e6420636f6e646974696f6e2e0000000000000000000000000000602082015260400192915050565b6000616eb8602283617b6b565b7f566f74657220646f6573206e6f74207375626d6974746564206570682e206b6581527f792e000000000000000000000000000000000000000000000000000000000000602082015260400192915050565b6000616f17602583617b6b565b7f4e6f7420656e6f756768206465706f7369742073656e7420627920617574686f81527f726974792e000000000000000000000000000000000000000000000000000000602082015260400192915050565b6000616f76601583617b6b565b7f566f74657220616c7265616479206578697374732e0000000000000000000000815260200192915050565b6000616faf603483617b6b565b7f537461727420696478206d757374206265203c207468616e20746865206e756d81527f626572206f66207061727469636970616e74732e000000000000000000000000602082015260400192915050565b600061700e602b83617b6b565b7f50726f6f6620766572696669636174696f6e206661696c656420617420326e6481527f20636f6e646974696f6e2e000000000000000000000000000000000000000000602082015260400192915050565b600061706d601583617b6b565b7f57726f6e672073746167652064657465637465642e0000000000000000000000815260200192915050565b60006170a6602f83617b6b565b7f457068656d6572616c20504b206f662074686520766f746572206d757374206281527f65206f6e207468652063757276652e0000000000000000000000000000000000602082015260400192915050565b6000617105602383617b6b565b7f566f74696e672074696d656f757420686173206e6f742065787069726564207981527f65742e0000000000000000000000000000000000000000000000000000000000602082015260400192915050565b6000617164602583617b6b565b7f496e636f72726563742074616c6c792076616c75657320776572652070726f7681527f696465642e000000000000000000000000000000000000000000000000000000602082015260400192915050565b60006171c3604f83617b6b565b7f4d50432062617463682073697a6520697320686967686572207468616e20746881527f65206e756d626572206f6620766f74657273202873686f756c6420626520657160208201527f75616c206f72206c6f776572292e200000000000000000000000000000000000604082015260600192915050565b6000617248602683617b6b565b7f4f6e6c7920617574686f726974792063616e2063616c6c20746869732066756e81527f6374696f6e2e0000000000000000000000000000000000000000000000000000602082015260400192915050565b60006172a7601d83617b6b565b7f4320646f6573206e6f74206d6174636820584f52206f6620276427732e000000815260200192915050565b60006172e0601783617b6b565b7f566f74696e672074696d656f757420657870697265642e000000000000000000815260200192915050565b6000617319602f83617b6b565b7f50726f6f6620766572696669636174696f6e206661696c65642061742074686581527f2031737420636f6e646974696f6e2e0000000000000000000000000000000000602082015260400192915050565b6000617378602d83617b6b565b7f4c656e677468206f66206d6f6420696e7665727365206361636865206172726181527f7920322069732077726f6e672e00000000000000000000000000000000000000602082015260400192915050565b60006173d7601d83617b6b565b7f432061727261792068617320696e636f7272656374206c656e6774682e000000815260200192915050565b6000617410601283617b6b565b7f55736520646f75626c6520696e73746561640000000000000000000000000000815260200192915050565b6000617449603283617b6b565b7f46542050726f6f6620766572696669636174696f6e206661696c65642061742081527f7468652031737420636f6e646974696f6e2e0000000000000000000000000000602082015260400192915050565b60006174a8601383617b6b565b7f4e6f7420456c696769626c6520766f7465722e00000000000000000000000000815260200192915050565b60006174e1600a83617b6b565b7f57726f6e67206461746100000000000000000000000000000000000000000000815260200192915050565b600061751a601983617b6b565b7f507265566f74696e672074696d656f7574206578706972656400000000000000815260200192915050565b60006175528287616797565b6040820191506175628286616797565b60408201915061757282856166ff565b60408201915061758282846166ff565b50604001949350505050565b600061759a8285616923565b9150611ad38284616923565b60006175b282846169cf565b50602001919050565b60208101614ee382846165a2565b602080825281016175da81846165b1565b9392505050565b6101a081016175f0828861660a565b6175fd6080830187616889565b61760b6101408301866169e9565b6176196101608301856169e9565b6176276101808301846169e9565b9695505050505050565b602080825281016175da818461665e565b60408101614ee382846166b3565b60408101614ee382846167ea565b602080825281016175da81846168d5565b60a0808252810161768081866168d5565b9050818103602083015261769481856168d5565b9050611ad3604083018461683d565b602080825281016175da8184616971565b60208101614ee382846169c6565b60208101614ee382846169e0565b60208101614ee382846169e9565b602080825281016175da81846169f2565b60208082528101614ee381616a2a565b60208082528101614ee381616a89565b60208082528101614ee381616ae8565b60208082528101614ee381616b47565b60208082528101614ee381616ba6565b60208082528101614ee381616c05565b60208082528101614ee381616c64565b60208082528101614ee381616cad565b60208082528101614ee381616d0c565b60208082528101614ee381616d6b565b60208082528101614ee381616dca565b60208082528101614ee381616e13565b60208082528101614ee381616e4c565b60208082528101614ee381616eab565b60208082528101614ee381616f0a565b60208082528101614ee381616f69565b60208082528101614ee381616fa2565b60208082528101614ee381617001565b60208082528101614ee381617060565b60208082528101614ee381617099565b60208082528101614ee3816170f8565b60208082528101614ee381617157565b60208082528101614ee3816171b6565b60208082528101614ee38161723b565b60208082528101614ee38161729a565b60208082528101614ee3816172d3565b60208082528101614ee38161730c565b60208082528101614ee38161736b565b60208082528101614ee3816173ca565b60208082528101614ee381617403565b60208082528101614ee38161743c565b60208082528101614ee38161749b565b60208082528101614ee3816174d4565b60208082528101614ee38161750d565b6040810161791d82856169e9565b6175da60208301846169e9565b6060810161793882866169e9565b61794560208301856169e9565b611ad360408301846169e9565b60a0810161796082886169e9565b61796d60208301876169e9565b61797a60408301866169e9565b61798760608301856169e9565b61762760808301846169e9565b60c081016179a282896169e9565b6179af60208301886169e9565b6179bc60408301876169e9565b6179c960608301866169e9565b6179d660808301856169e9565b6179e360a08301846169e9565b979650505050505050565b60e081016179fc828a6169e9565b617a0960208301896169e9565b617a1660408301886169e9565b617a2360608301876169e9565b617a3060808301866169e9565b617a3d60a08301856169e9565b617a4a60c08301846169e9565b98975050505050505050565b6101008101617a65828b6169e9565b617a72602083018a6169e9565b617a7f60408301896169e9565b617a8c60608301886169e9565b617a9960808301876169e9565b617aa660a08301866169e9565b617ab360c08301856169e9565b617ac060e08301846169e9565b9998505050505050505050565b60405181810167ffffffffffffffff81118282101715617aec57600080fd5b604052919050565b600067ffffffffffffffff821115617b0b57600080fd5b5060209081020190565b600067ffffffffffffffff821115617b2c57600080fd5b5060200290565b60200190565b60009081526020902090565b5190565b50600490565b5490565b50600290565b50600390565b50600690565b60010190565b90815260200190565b6000614ee382617b8e565b151590565b8061322481617bf9565b600160a060020a031690565b6000614ee382617b84565b60005b83811015617bc0578181015183820152602001617ba8565b83811115617bcf576000848401525b50505050565b6000614ee36169db836110ae565b6000614ee38254617bd5565b601f01601f191690565b60068110617c0357fe5b50565b617c0f81617b74565b8114617c0357600080fd5b617c0f81617b7f565b617c0f816110ae56fea265627a7a7230582032da50b763ffe8b45d1445455cd65bb2973094b7b0924d00f362d80890b074a56c6578706572696d656e74616cf50037a265627a7a72305820cb3c399f9b4a5f93d065666ee71df505dd46c3e35b648ff0b561a5e3d0af3c1b6c6578706572696d656e74616cf50037",
  "source": "pragma experimental ABIEncoderV2;\n\n/**\n * Description:\n *   Smart contract wallet with 2-step authentication based on OTPs generated by CSPRNG and aggregated by Merkle tree.\n *\n * SPDX-License-Identifier: MIT\n */\n// pragma solidity ^0.5.8;\npragma solidity >=0.5.8 <0.8.0;\n\nimport \"./BCVoting.sol\";\n\ncontract BCVotingFactory {\n    event BCVotingContractCreated(address newAddress);\n\n    address[] public allVotings;\n    address public associatedEC;\n    address public associatedFastEC;\n\n    constructor(address _associatedEC, address _associatedFastEC) public {\n        associatedEC = _associatedEC;\n        associatedFastEC = _associatedFastEC;\n    }\n\n    function createBCVoting(\n        string[] memory _candidates,\n        uint256[] memory _cand_generators,\n        uint256 _deltaT,\n        uint256 _mpc_batch_size\n    ) public returns (BCVoting) {\n        BCVoting b =\n            new BCVoting(\n                _candidates,\n                _cand_generators,\n                _deltaT,\n                _mpc_batch_size,\n                msg.sender,\n                associatedEC,\n                associatedFastEC\n            );\n        // emit BCVotingContractCreated(address(b));\n        allVotings.push(address(b));\n        return b;\n    }\n\n    function destruct() public {\n        selfdestruct(msg.sender);\n    }\n\n    function getCntOfVotings() public view returns (uint256) {\n        return allVotings.length;\n    }\n}\n",
  "sourcePath": "/home/xhosal00/projects/pp/contracts/BCVotingFactory.sol",
  "compiler": {
    "name": "solc",
    "version": "0.5.8+commit.23d335f2.Emscripten.clang"
  },
  "schemaVersion": "3.3.4",
  "updatedAt": "2021-06-17T18:36:43.989Z",
  "devdoc": {
    "methods": {}
  },
  "userdoc": {
    "methods": {}
  }
}