{
  "contractName": "EC",
  "abi": [
    {
      "constant": true,
      "inputs": [
        {
          "name": "_x",
          "type": "uint256"
        },
        {
          "name": "_pp",
          "type": "uint256"
        }
      ],
      "name": "invMod",
      "outputs": [
        {
          "name": "",
          "type": "uint256"
        }
      ],
      "payable": false,
      "stateMutability": "pure",
      "type": "function"
    },
    {
      "constant": true,
      "inputs": [
        {
          "name": "base",
          "type": "uint256"
        },
        {
          "name": "modulus",
          "type": "uint256"
        },
        {
          "name": "user_result",
          "type": "uint256"
        }
      ],
      "name": "invMod_optim",
      "outputs": [
        {
          "name": "",
          "type": "uint256"
        }
      ],
      "payable": false,
      "stateMutability": "pure",
      "type": "function"
    },
    {
      "constant": true,
      "inputs": [
        {
          "name": "_base",
          "type": "uint256"
        },
        {
          "name": "_exp",
          "type": "uint256"
        },
        {
          "name": "_pp",
          "type": "uint256"
        }
      ],
      "name": "expMod",
      "outputs": [
        {
          "name": "",
          "type": "uint256"
        }
      ],
      "payable": false,
      "stateMutability": "pure",
      "type": "function"
    },
    {
      "constant": true,
      "inputs": [
        {
          "name": "_x",
          "type": "uint256"
        },
        {
          "name": "_y",
          "type": "uint256"
        },
        {
          "name": "_z",
          "type": "uint256"
        },
        {
          "name": "_pp",
          "type": "uint256"
        }
      ],
      "name": "toAffine",
      "outputs": [
        {
          "name": "",
          "type": "uint256"
        },
        {
          "name": "",
          "type": "uint256"
        }
      ],
      "payable": false,
      "stateMutability": "pure",
      "type": "function"
    },
    {
      "constant": true,
      "inputs": [
        {
          "name": "_x",
          "type": "uint256"
        },
        {
          "name": "_y",
          "type": "uint256"
        },
        {
          "name": "_z",
          "type": "uint256"
        },
        {
          "name": "_pp",
          "type": "uint256"
        }
      ],
      "name": "toAffine3",
      "outputs": [
        {
          "name": "",
          "type": "uint256"
        },
        {
          "name": "",
          "type": "uint256"
        },
        {
          "name": "",
          "type": "uint256"
        }
      ],
      "payable": false,
      "stateMutability": "pure",
      "type": "function"
    },
    {
      "constant": true,
      "inputs": [
        {
          "name": "_x",
          "type": "uint256"
        },
        {
          "name": "_y",
          "type": "uint256"
        },
        {
          "name": "_z",
          "type": "uint256"
        },
        {
          "name": "res_of_inv",
          "type": "uint256"
        },
        {
          "name": "_pp",
          "type": "uint256"
        }
      ],
      "name": "toAffine3_optim",
      "outputs": [
        {
          "name": "",
          "type": "uint256"
        },
        {
          "name": "",
          "type": "uint256"
        },
        {
          "name": "",
          "type": "uint256"
        }
      ],
      "payable": false,
      "stateMutability": "pure",
      "type": "function"
    },
    {
      "constant": true,
      "inputs": [
        {
          "name": "_prefix",
          "type": "uint8"
        },
        {
          "name": "_x",
          "type": "uint256"
        },
        {
          "name": "_aa",
          "type": "uint256"
        },
        {
          "name": "_bb",
          "type": "uint256"
        },
        {
          "name": "_pp",
          "type": "uint256"
        }
      ],
      "name": "deriveY",
      "outputs": [
        {
          "name": "",
          "type": "uint256"
        }
      ],
      "payable": false,
      "stateMutability": "pure",
      "type": "function"
    },
    {
      "constant": true,
      "inputs": [
        {
          "name": "_x",
          "type": "uint256"
        },
        {
          "name": "_y",
          "type": "uint256"
        },
        {
          "name": "_aa",
          "type": "uint256"
        },
        {
          "name": "_bb",
          "type": "uint256"
        },
        {
          "name": "_pp",
          "type": "uint256"
        }
      ],
      "name": "isOnCurve",
      "outputs": [
        {
          "name": "",
          "type": "bool"
        }
      ],
      "payable": false,
      "stateMutability": "pure",
      "type": "function"
    },
    {
      "constant": true,
      "inputs": [
        {
          "name": "_x",
          "type": "uint256"
        },
        {
          "name": "_y",
          "type": "uint256"
        },
        {
          "name": "_pp",
          "type": "uint256"
        }
      ],
      "name": "ecInv",
      "outputs": [
        {
          "name": "",
          "type": "uint256"
        },
        {
          "name": "",
          "type": "uint256"
        }
      ],
      "payable": false,
      "stateMutability": "pure",
      "type": "function"
    },
    {
      "constant": true,
      "inputs": [
        {
          "name": "_x1",
          "type": "uint256"
        },
        {
          "name": "_y1",
          "type": "uint256"
        },
        {
          "name": "_x2",
          "type": "uint256"
        },
        {
          "name": "_y2",
          "type": "uint256"
        },
        {
          "name": "_aa",
          "type": "uint256"
        },
        {
          "name": "_pp",
          "type": "uint256"
        }
      ],
      "name": "ecAdd",
      "outputs": [
        {
          "name": "",
          "type": "uint256"
        },
        {
          "name": "",
          "type": "uint256"
        }
      ],
      "payable": false,
      "stateMutability": "pure",
      "type": "function"
    },
    {
      "constant": true,
      "inputs": [
        {
          "name": "_x1",
          "type": "uint256"
        },
        {
          "name": "_y1",
          "type": "uint256"
        },
        {
          "name": "_x2",
          "type": "uint256"
        },
        {
          "name": "_y2",
          "type": "uint256"
        },
        {
          "name": "_aa",
          "type": "uint256"
        },
        {
          "name": "_pp",
          "type": "uint256"
        }
      ],
      "name": "ecSub",
      "outputs": [
        {
          "name": "",
          "type": "uint256"
        },
        {
          "name": "",
          "type": "uint256"
        }
      ],
      "payable": false,
      "stateMutability": "pure",
      "type": "function"
    },
    {
      "constant": true,
      "inputs": [
        {
          "name": "_k",
          "type": "uint256"
        },
        {
          "name": "_x",
          "type": "uint256"
        },
        {
          "name": "_y",
          "type": "uint256"
        },
        {
          "name": "_aa",
          "type": "uint256"
        },
        {
          "name": "_pp",
          "type": "uint256"
        }
      ],
      "name": "ecMul",
      "outputs": [
        {
          "name": "",
          "type": "uint256"
        },
        {
          "name": "",
          "type": "uint256"
        }
      ],
      "payable": false,
      "stateMutability": "pure",
      "type": "function"
    },
    {
      "constant": true,
      "inputs": [
        {
          "name": "_x1",
          "type": "uint256"
        },
        {
          "name": "_y1",
          "type": "uint256"
        },
        {
          "name": "_z1",
          "type": "uint256"
        },
        {
          "name": "_x2",
          "type": "uint256"
        },
        {
          "name": "_y2",
          "type": "uint256"
        },
        {
          "name": "_aa",
          "type": "uint256"
        },
        {
          "name": "_pp",
          "type": "uint256"
        }
      ],
      "name": "ecAdd_J_Mixed",
      "outputs": [
        {
          "name": "x",
          "type": "uint256"
        },
        {
          "name": "y",
          "type": "uint256"
        },
        {
          "name": "z",
          "type": "uint256"
        }
      ],
      "payable": false,
      "stateMutability": "pure",
      "type": "function"
    },
    {
      "constant": true,
      "inputs": [
        {
          "name": "_x1",
          "type": "uint256"
        },
        {
          "name": "_y1",
          "type": "uint256"
        },
        {
          "name": "_z1",
          "type": "uint256"
        },
        {
          "name": "_x2",
          "type": "uint256"
        },
        {
          "name": "_y2",
          "type": "uint256"
        },
        {
          "name": "_z2",
          "type": "uint256"
        },
        {
          "name": "_pp",
          "type": "uint256"
        }
      ],
      "name": "ecSub_J",
      "outputs": [
        {
          "name": "",
          "type": "uint256"
        },
        {
          "name": "",
          "type": "uint256"
        },
        {
          "name": "",
          "type": "uint256"
        }
      ],
      "payable": false,
      "stateMutability": "pure",
      "type": "function"
    },
    {
      "constant": true,
      "inputs": [
        {
          "name": "_x1",
          "type": "uint256"
        },
        {
          "name": "_y1",
          "type": "uint256"
        },
        {
          "name": "_z1",
          "type": "uint256"
        },
        {
          "name": "_x2",
          "type": "uint256"
        },
        {
          "name": "_y2",
          "type": "uint256"
        },
        {
          "name": "_z2",
          "type": "uint256"
        },
        {
          "name": "invmod_result",
          "type": "uint256"
        },
        {
          "name": "_pp",
          "type": "uint256"
        }
      ],
      "name": "ecSub_J_optim",
      "outputs": [
        {
          "name": "",
          "type": "uint256"
        },
        {
          "name": "",
          "type": "uint256"
        },
        {
          "name": "",
          "type": "uint256"
        }
      ],
      "payable": false,
      "stateMutability": "pure",
      "type": "function"
    }
  ],
  "bytecode": "0x610f95610026600b82828239805160001a60731461001957fe5b30600052607381538281f3fe73000000000000000000000000000000000000000030146080604052600436106100fc576000357c010000000000000000000000000000000000000000000000000000000090048063ad69caa5116100ae578063ad69caa514610292578063ba8ad031146102bb578063c4371a1c1461031a578063c5e45aa414610349578063cc906d0914610384578063e0dd01dc146103b9578063ea39f4cb146103e8578063ff55ab5b14610430576100fc565b80631b54f82414610101578063364b62d51461013657806337103a67146101845780634f736305146101cd5780635bf11ed3146101f65780637559d550146102315780638ba5ceeb1461025a575b600080fd5b6101246004803603604081101561011757600080fd5b5080359060200135610471565b60408051918252519081900360200190f35b61016b600480360360a081101561014c57600080fd5b508035906020810135906040810135906060810135906080013561052d565b6040805192835260208301919091528051918290030190f35b6101b9600480360360a081101561019a57600080fd5b5080359060208101359060408101359060608101359060800135610567565b604080519115158252519081900360200190f35b610124600480360360608110156101e357600080fd5b50803590602081013590604001356105fc565b61016b600480360360c081101561020c57600080fd5b5080359060208101359060408101359060608101359060808101359060a00135610654565b61016b6004803603606081101561024757600080fd5b5080359060208101359060400135610688565b610124600480360360a081101561027057600080fd5b5060ff81351690602081013590604081013590606081013590608001356106a4565b610124600480360360608110156102a857600080fd5b5080359060208101359060400135610715565b6102fc600480360360e08110156102d157600080fd5b5080359060208101359060408101359060608101359060808101359060a08101359060c00135610807565b60408051938452602084019290925282820152519081900360600190f35b61016b6004803603608081101561033057600080fd5b5080359060208101359060408101359060600135610852565b61016b600480360360c081101561035f57600080fd5b5080359060208101359060408101359060608101359060808101359060a001356108a9565b6102fc600480360360a081101561039a57600080fd5b5080359060208101359060408101359060608101359060800135610908565b6102fc600480360360808110156103cf57600080fd5b5080359060208101359060408101359060600135610969565b6102fc60048036036101008110156103ff57600080fd5b5080359060208101359060408101359060608101359060808101359060a08101359060c08101359060e001356109c5565b6102fc600480360360e081101561044657600080fd5b5080359060208101359060408101359060608101359060808101359060a08101359060c00135610a03565b600082158061047f57508183145b80610488575081155b156104dd576040805160e560020a62461bcd02815260206004820152600e60248201527f496e76616c6964206e756d626572000000000000000000000000000000000000604482015290519081900360640190fd5b600060018385835b8115610521578183816104f457fe5b04905083878061050057fe5b888061050857fe5b86840989038708909550935090918183029003906104e5565b50929695505050505050565b60008060008060006105448a8a8a60018b8b610a3f565b92509250925061055683838389610852565b945094505050509550959350505050565b600085158061057557508186145b8061057e575084155b8061058857508185145b15610595575060006105f3565b6000828061059f57fe5b8687099050600083806105ae57fe5b8885806105b757fe5b8a8b0909905085156105db5783806105cb57fe5b84806105d357fe5b878a09820890505b84156105ef5783806105e957fe5b85820890505b1490505b95945050505050565b6000828061060657fe5b82850960011461064a5760405160e560020a62461bcd028152600401808060200182810382526046815260200180610f246046913960600191505060405180910390fd5b50805b9392505050565b600080600080610665888887610688565b915091506106778a8a84848a8a6108a9565b935093505050965096945050505050565b60008084838585038161069757fe5b0691509150935093915050565b60008082806106af57fe5b83806106b757fe5b8585806106c057fe5b888a090884806106cc57fe5b85806106d457fe5b898a0989090890506106ed816004600186010485610715565b90506000600260ff89168301061561070757818403610709565b815b98975050505050505050565b6000836107245750600061064d565b826107315750600161064d565b81610786576040805160e560020a62461bcd02815260206004820152600f60248201527f4d6f64756c7573206973207a65726f0000000000000000000000000000000000604482015290519081900360640190fd5b60017f80000000000000000000000000000000000000000000000000000000000000005b80156107fe57838186161515870a85848509099150836002820486161515870a85848509099150836004820486161515870a85848509099150836008820486161515870a85848509099150601090046107aa565b50949350505050565b6000806000868a141561082d576108218a8a8a8888610af1565b91945092509050610845565b61083d8a8a8a8a8a60018a610c1f565b919450925090505b9750975097945050505050565b60008060006108618585610471565b90506000848061086d57fe5b82830990506000858061087c57fe5b828a0990506000868061088b57fe5b878061089357fe5b8486098a09919a91995090975050505050505050565b6000808080808a8914156108d1576108c58b8b60018a8a610af1565b919450925090506108ea565b6108e28b8b60018c8c60018c610c1f565b919450925090505b6108f683838389610852565b94509450505050965096945050505050565b6000806000806109198786886105fc565b90506000858061092557fe5b82830990506000868061093457fe5b828c0990506000878061094357fe5b888061094b57fe5b8486098c09919650909450600193505050505b955095509592505050565b6000806000806109798686610471565b90506000858061098557fe5b82830990506000868061099457fe5b828b099050600087806109a357fe5b88806109ab57fe5b8486098b09919b919a506001995090975050505050505050565b60008060006109d78888888888610908565b9199508503975095506109ef8b8b8b8b8b8b8a610c1f565b925092509250985098509895505050505050565b6000806000610a1487878787610969565b919850850396509450610a2c8a8a8a8a8a8a8a610c1f565b9250925092509750975097945050505050565b6000808088610a4c610ee7565b898152602081018990526040810188905260008060018d610a765791965094509250610ae5915050565b8415610adb576001851615610aab57835160208501516040860151610aa39286928692869291908f610c1f565b919450925090505b835160208501516040860151600290970496610aca9291908d8d610af1565b604087015260208601528452610a76565b9196509450925050505b96509650969350505050565b6000808085610b0757508691508590508461095e565b610b0f610ee7565b8480610b1757fe5b898a0981528480610b2457fe5b88890960208201528480610b3457fe5b878809604082015260008580610b4657fe5b8680610b4e57fe5b60208401518c09600409905060008680610b6457fe5b8780610b6c57fe5b8880610b7457fe5b604086015180098a098880610b8557fe5b855160030908905060008780610b9757fe5b8880610b9f57fe5b84850889038980610bac57fe5b84850908905060008880610bbc57fe5b8980610bc457fe5b8a80610bcc57fe5b602088015180096008098a038a80610be057fe5b8b80610be857fe5b858d038808860908905060008980610bfc57fe5b8a80610c0457fe5b8d8f09600209929e919d50919b509950505050505050505050565b6000808089158015610c2f575088155b15610c41575085915084905083610845565b86158015610c4d575085155b15610c5f575088915087905086610845565b610c67610f05565b8480610c6f57fe5b898a0981528480610c7c57fe5b81518a0960208201528480610c8d57fe5b86870960408201528480610c9d57fe5b6040820151870960608201526040805160808101909152808680610cbd57fe5b60408401518e0981526020018680610cd157fe5b60608401518d0981526020018680610ce557fe5b83518b0981526020018680610cf657fe5b60208401518a099052604081015181519192501415610dbe576060810151602082015114610d6e576040805160e560020a62461bcd02815260206004820152600a60248201527f57726f6e67206461746100000000000000000000000000000000000000000000604482015290519081900360640190fd5b6040805160e560020a62461bcd02815260206004820152601260248201527f55736520646f75626c6520696e73746561640000000000000000000000000000604482015290519081900360640190fd5b610dc6610f05565b8580610dce57fe5b82516040840151908803900881528580610de457fe5b60208301516060840151908803900860208201528580610e0057fe5b8151800960408201528580610e1157fe5b8151604083015109606082015260008680610e2857fe5b606083015188038880610e3757fe5b602085015180090890508680610e4957fe5b8780610e5157fe5b8880610e5957fe5b604085015186510960020988038208905060008780610e7457fe5b8880610e7c57fe5b838a038a80610e8757fe5b60408701518851090860208501510990508780610ea057fe5b8880610ea857fe5b606085015160208701510989038208905060008880610ec357fe5b8980610ecb57fe5b8b8f09855109929f919e50919c509a5050505050505050505050565b60405180606001604052806003906020820280388339509192915050565b6040518060800160405280600490602082028038833950919291505056fe4d6f64756c617220696e766572736520726573756c742070726f766964656420627920746865207573657220646f6573206e6f74206d617463682074686520706172616d732ea165627a7a72305820decbf28692ed410361ad639ab43576bf03ac9bd3bd0db0221ca2ded6fe6de8450029",
  "source": "pragma solidity >=0.5.8 <0.8.0;\n\n/**\n * @title Elliptic Curve Library\n * @dev Library providing arithmetic operations over elliptic curves.\n * @author Witnet Foundation\n * SPDX-License-Identifier: MIT\n */\nlibrary EC {\n\n  /// @dev Modular euclidean inverse of a number (mod p).\n  /// @param _x The number\n  /// @param _pp The modulus\n  /// @return q such that x*q = 1 (mod _pp)\n  function invMod(uint256 _x, uint256 _pp) public pure returns (uint256) {\n    if (_x == 0 || _x == _pp || _pp == 0) {\n      require(false,  \"Invalid number\");\n    }\n    uint256 q = 0;\n    uint256 newT = 1;\n    uint256 r = _pp;\n    uint256 newR = _x;\n    uint256 t;\n    while (newR != 0) {\n      t = r / newR;\n      (q, newT) = (newT, addmod(q, (_pp - mulmod(t, newT, _pp)), _pp));\n      (r, newR) = (newR, r - t * newR );\n    }\n\n    return q;\n  }\n\n    /** @dev invMod_optim: Takes base, modulus, and result, verifies (base*user_result) % modulus==1, and returns result.\n      *                   It's far cheaper to verify an inverse operation on-chain than calculate it, so we allow the user to pass their own result.\n      *\n      * The idea was find in BigNumber library for solidity (https://github.com/zcoinofficial/solidity-BigNumber)\n      *\n      * parameter: instance base\n      * parameter: instance modulus\n      * parameter: instance user_result\n      * returns: user_result.\n      */\n    function invMod_optim(uint base, uint modulus, uint user_result) public pure returns(uint){\n        require(mulmod(base, user_result, modulus) == 1, \"Modular inverse result provided by the user does not match the params.\");\n        return user_result;\n     }\n\n\n  /// @dev Modular exponentiation, b^e % _pp.\n  /// Source: https://github.com/androlo/standard-contracts/blob/master/contracts/src/crypto/ECCMath.sol\n  /// @param _base base\n  /// @param _exp exponent\n  /// @param _pp modulus\n  /// @return r such that r = b**e (mod _pp)\n  function expMod(uint256 _base, uint256 _exp, uint256 _pp) public pure returns (uint256) {\n    if (_base == 0)\n      return 0;\n    if (_exp == 0)\n      return 1;\n    if (_pp == 0)\n      require(false,  \"Modulus is zero\");\n    uint256 r = 1;\n    uint256 bit = 2 ** 255;\n\n    assembly {\n      for { } gt(bit, 0) { }{\n        r := mulmod(mulmod(r, r, _pp), exp(_base, iszero(iszero(and(_exp, bit)))), _pp)\n        r := mulmod(mulmod(r, r, _pp), exp(_base, iszero(iszero(and(_exp, div(bit, 2))))), _pp)\n        r := mulmod(mulmod(r, r, _pp), exp(_base, iszero(iszero(and(_exp, div(bit, 4))))), _pp)\n        r := mulmod(mulmod(r, r, _pp), exp(_base, iszero(iszero(and(_exp, div(bit, 8))))), _pp)\n        bit := div(bit, 16)\n      }\n    }\n\n    return r;\n  }\n\n  /// @dev Converts a point (x, y, z) expressed in Jacobian coordinates to affine coordinates (x', y', 1).\n  /// @param _x coordinate x\n  /// @param _y coordinate y\n  /// @param _z coordinate z\n  /// @param _pp the modulus\n  /// @return (x', y') affine coordinates\n  function toAffine(\n    uint256 _x,\n    uint256 _y,\n    uint256 _z,\n    uint256 _pp)\n  public pure returns (uint256, uint256)\n  {\n    uint256 zInv = invMod(_z, _pp);\n    uint256 zInv2 = mulmod(zInv, zInv, _pp);\n    uint256 x2 = mulmod(_x, zInv2, _pp);\n    uint256 y2 = mulmod(_y, mulmod(zInv, zInv2, _pp), _pp);\n\n    return (x2, y2);\n  }\n\n  function toAffine3(\n    uint256 _x,\n    uint256 _y,\n    uint256 _z,\n    uint256 _pp)\n  public pure returns (uint256, uint256, uint256)\n  {\n    uint256 zInv = invMod(_z, _pp);\n    // uint256 zInv = mulmod(_z, _y, _pp);\n    uint256 zInv2 = mulmod(zInv, zInv, _pp);\n    uint256 x2 = mulmod(_x, zInv2, _pp);\n    uint256 y2 = mulmod(_y, mulmod(zInv, zInv2, _pp), _pp);\n\n    return (x2, y2, 1);\n  }\n\n  function toAffine3_optim(\n    uint256 _x,\n    uint256 _y,\n    uint256 _z,\n    uint256 res_of_inv,\n    uint256 _pp)\n  public pure returns (uint256, uint256, uint256)\n  {\n    uint256 zInv = invMod_optim(_z, _pp, res_of_inv);\n    uint256 zInv2 = mulmod(zInv, zInv, _pp);\n    uint256 x2 = mulmod(_x, zInv2, _pp);\n    uint256 y2 = mulmod(_y, mulmod(zInv, zInv2, _pp), _pp);\n\n    return (x2, y2, 1);\n  }\n\n  /// @dev Derives the y coordinate from a compressed-format point x.\n  /// @param _prefix parity byte (0x02 even, 0x03 odd)\n  /// @param _x coordinate x\n  /// @param _aa constant of curve\n  /// @param _bb constant of curve\n  /// @param _pp the modulus\n  /// @return y coordinate y\n  function deriveY(\n    uint8 _prefix,\n    uint256 _x,\n    uint256 _aa,\n    uint256 _bb,\n    uint256 _pp)\n  public pure returns (uint256)\n  {\n    // x^3 + ax + b\n    uint256 y2 = addmod(mulmod(_x, mulmod(_x, _x, _pp), _pp), addmod(mulmod(_x, _aa, _pp), _bb, _pp), _pp);\n    y2 = expMod(y2, (_pp + 1) / 4, _pp);\n    // uint256 cmp = yBit ^ y_ & 1;\n    uint256 y = (y2 + _prefix) % 2 == 0 ? y2 : _pp - y2;\n\n    return y;\n  }\n\n  /// @dev Check whether point (x,y) is on curve defined by a, b, and _pp.\n  /// @param _x coordinate x of P1\n  /// @param _y coordinate y of P1\n  /// @param _aa constant of curve\n  /// @param _bb constant of curve\n  /// @param _pp the modulus\n  /// @return true if x,y in the curve, false else\n  function isOnCurve(\n    uint _x,\n    uint _y,\n    uint _aa,\n    uint _bb,\n    uint _pp)\n  public pure returns (bool)\n  {\n    if (0 == _x || _x == _pp || 0 == _y || _y == _pp) {\n      return false;\n    }\n    // y^2\n    uint lhs = mulmod(_y, _y, _pp);\n    // x^3\n    uint rhs = mulmod(mulmod(_x, _x, _pp), _x, _pp);\n    if (_aa != 0) {\n      // x^3 + a*x\n      rhs = addmod(rhs, mulmod(_x, _aa, _pp), _pp);\n    }\n    if (_bb != 0) {\n      // x^3 + a*x + b\n      rhs = addmod(rhs, _bb, _pp);\n    }\n\n    return lhs == rhs;\n  }\n\n  /// @dev Calculate inverse (x, -y) of point (x, y).\n  /// @param _x coordinate x of P1\n  /// @param _y coordinate y of P1\n  /// @param _pp the modulus\n  /// @return (x, -y)\n  function ecInv(\n    uint256 _x,\n    uint256 _y,\n    uint256 _pp)\n  public pure returns (uint256, uint256)\n  {\n    return (_x, (_pp - _y) % _pp);\n  }\n\n  /// @dev Add two points (x1, y1) and (x2, y2) in affine coordinates.\n  /// @param _x1 coordinate x of P1\n  /// @param _y1 coordinate y of P1\n  /// @param _x2 coordinate x of P2\n  /// @param _y2 coordinate y of P2\n  /// @param _aa constant of the curve\n  /// @param _pp the modulus\n  /// @return (qx, qy) = P1+P2 in affine coordinates\n  function ecAdd(\n    uint256 _x1,\n    uint256 _y1,\n    uint256 _x2,\n    uint256 _y2,\n    uint256 _aa,\n    uint256 _pp)\n    public pure returns(uint256, uint256)\n  {\n    uint x = 0;\n    uint y = 0;\n    uint z = 0;\n    // Double if x1==x2 else add\n    if (_x1==_x2) {\n      (x, y, z) = jacDouble(\n        _x1,\n        _y1,\n        1,\n        _aa,\n        _pp);\n    } else {\n      (x, y, z) = jacAdd(\n        _x1,\n        _y1,\n        1,\n        _x2,\n        _y2,\n        1,\n        _pp);\n    }\n    // Get back to affine\n    return toAffine(\n      x,\n      y,\n      z,\n      _pp);\n  }\n\n  /// @dev Substract two points (x1, y1) and (x2, y2) in affine coordinates.\n  /// @param _x1 coordinate x of P1\n  /// @param _y1 coordinate y of P1\n  /// @param _x2 coordinate x of P2\n  /// @param _y2 coordinate y of P2\n  /// @param _aa constant of the curve\n  /// @param _pp the modulus\n  /// @return (qx, qy) = P1-P2 in affine coordinates\n  function ecSub(\n    uint256 _x1,\n    uint256 _y1,\n    uint256 _x2,\n    uint256 _y2,\n    uint256 _aa,\n    uint256 _pp)\n  public pure returns(uint256, uint256)\n  {\n    // invert square\n    (uint256 x, uint256 y) = ecInv(_x2, _y2, _pp);\n    // P1-square\n    return ecAdd(\n      _x1,\n      _y1,\n      x,\n      y,\n      _aa,\n      _pp);\n  }\n\n  /// @dev Multiply point (x1, y1, z1) times d in affine coordinates.\n  /// @param _k scalar to multiply\n  /// @param _x coordinate x of P1\n  /// @param _y coordinate y of P1\n  /// @param _aa constant of the curve\n  /// @param _pp the modulus\n  /// @return (qx, qy) = d*P in affine coordinates\n  function ecMul(\n    uint256 _k,\n    uint256 _x,\n    uint256 _y,\n    uint256 _aa,\n    uint256 _pp)\n  public pure returns(uint256, uint256)\n  {\n    // Jacobian multiplication\n    (uint256 x1, uint256 y1, uint256 z1) = jacMul(\n      _k,\n      _x,\n      _y,\n      1,\n      _aa,\n      _pp);\n    // Get back to affine\n    return toAffine(\n      x1,\n      y1,\n      z1,\n      _pp);\n  }\n\n  /// @dev Adds two points (x1, y1, z1) and (x2 y2, z2).\n  /// @param _x1 coordinate x of P1\n  /// @param _y1 coordinate y of P1\n  /// @param _z1 coordinate z of P1\n  /// @param _x2 coordinate x of square\n  /// @param _y2 coordinate y of square\n  /// @param _z2 coordinate z of square\n  /// @param _pp the modulus\n  /// @return (qx, qy, qz) P1+square in Jacobian\n  function jacAdd(\n    uint256 _x1,\n    uint256 _y1,\n    uint256 _z1,\n    uint256 _x2,\n    uint256 _y2,\n    uint256 _z2,\n    uint256 _pp)\n  internal pure returns (uint256, uint256, uint256)\n  {\n    if ((_x1==0)&&(_y1==0))\n      return (_x2, _y2, _z2);\n    if ((_x2==0)&&(_y2==0))\n      return (_x1, _y1, _z1);\n    // We follow the equations described in https://pdfs.semanticscholar.org/5c64/29952e08025a9649c2b0ba32518e9a7fb5c2.pdf Section 5\n\n    uint[4] memory zs; // z1^2, z1^3, z2^2, z2^3\n    zs[0] = mulmod(_z1, _z1, _pp);\n    zs[1] = mulmod(_z1, zs[0], _pp);\n    zs[2] = mulmod(_z2, _z2, _pp);\n    zs[3] = mulmod(_z2, zs[2], _pp);\n\n    // u1, s1, u2, s2\n    zs = [\n      mulmod(_x1, zs[2], _pp),\n      mulmod(_y1, zs[3], _pp),\n      mulmod(_x2, zs[0], _pp),\n      mulmod(_y2, zs[1], _pp)\n    ];\n    if (zs[0] == zs[2]) {\n      if (zs[1] != zs[3])\n        require(false,  \"Wrong data\");\n      else {\n        require(false,  \"Use double instead\");\n      }\n    }\n    uint[4] memory hr;\n    //h\n    hr[0] = addmod(zs[2], _pp - zs[0], _pp);\n    //r\n    hr[1] = addmod(zs[3], _pp - zs[1], _pp);\n    //h^2\n    hr[2] = mulmod(hr[0], hr[0], _pp);\n    // h^3\n    hr[3] = mulmod(hr[2], hr[0], _pp);\n    // qx = -h^3  -2u1h^2+r^2\n    uint256 qx = addmod(mulmod(hr[1], hr[1], _pp), _pp - hr[3], _pp);\n    qx = addmod(qx, _pp - mulmod(2, mulmod(zs[0], hr[2], _pp), _pp), _pp);\n    // qy = -s1*z1*h^3+r(u1*h^2 -x^3)\n    uint256 qy = mulmod(hr[1], addmod(mulmod(zs[0], hr[2], _pp), _pp - qx, _pp), _pp);\n    qy = addmod(qy, _pp - mulmod(zs[1], hr[3], _pp), _pp);\n    // qz = h*z1*z2\n    uint256 qz = mulmod(hr[0], mulmod(_z1, _z2, _pp), _pp);\n    return(qx, qy, qz);\n  }\n\n  /// @dev Doubles a points (x, y, z).\n  /// @param _x coordinate x of P1\n  /// @param _y coordinate y of P1\n  /// @param _z coordinate z of P1\n  /// @param _pp the modulus\n  /// @param _aa the a scalar in the curve equation\n  /// @return (qx, qy, qz) 2P in Jacobian\n  function jacDouble(\n    uint256 _x,\n    uint256 _y,\n    uint256 _z,\n    uint256 _aa,\n    uint256 _pp)\n  internal pure returns (uint256, uint256, uint256)\n  {\n    if (_z == 0)\n      return (_x, _y, _z);\n    uint256[3] memory square;\n    // We follow the equations described in https://pdfs.semanticscholar.org/5c64/29952e08025a9649c2b0ba32518e9a7fb5c2.pdf Section 5\n    // Note: there is a bug in the paper regarding the m parameter, M=3*(x1^2)+a*(z1^4)\n    square[0] = mulmod(_x, _x, _pp); //x1^2\n    square[1] = mulmod(_y, _y, _pp); //y1^2\n    square[2] = mulmod(_z, _z, _pp); //z1^2\n\n    // s\n    uint s = mulmod(4, mulmod(_x, square[1], _pp), _pp);\n    // m\n    uint m = addmod(mulmod(3, square[0], _pp), mulmod(_aa, mulmod(square[2], square[2], _pp), _pp), _pp);\n    // qx\n    uint256 qx = addmod(mulmod(m, m, _pp), _pp - addmod(s, s, _pp), _pp);\n    // qy = -8*y1^4 + M(S-T)\n    uint256 qy = addmod(mulmod(m, addmod(s, _pp - qx, _pp), _pp), _pp - mulmod(8, mulmod(square[1], square[1], _pp), _pp), _pp);\n    // qz = 2*y1*z1\n    uint256 qz = mulmod(2, mulmod(_y, _z, _pp), _pp);\n\n    return (qx, qy, qz);\n  }\n\n  /// @dev Multiply point (x, y, z) times d.\n  /// @param _d scalar to multiply\n  /// @param _x coordinate x of P1\n  /// @param _y coordinate y of P1\n  /// @param _z coordinate z of P1\n  /// @param _aa constant of curve\n  /// @param _pp the modulus\n  /// @return (qx, qy, qz) d*P1 in Jacobian\n  function jacMul(\n    uint256 _d,\n    uint256 _x,\n    uint256 _y,\n    uint256 _z,\n    uint256 _aa,\n    uint256 _pp)\n  internal pure returns (uint256, uint256, uint256)\n  {\n    uint256 remaining = _d;\n    uint256[3] memory point;\n    point[0] = _x;\n    point[1] = _y;\n    point[2] = _z;\n    uint256 qx = 0;\n    uint256 qy = 0;\n    uint256 qz = 1;\n\n    if (_d == 0) {\n      return (qx, qy, qz);\n    }\n    // Double and add algorithm\n    while (remaining != 0) {\n      if ((remaining & 1) != 0) {\n        (qx, qy, qz) = jacAdd(\n          qx,\n          qy,\n          qz,\n          point[0],\n          point[1],\n          point[2],\n          _pp);\n      }\n      remaining = remaining / 2;\n      (point[0], point[1], point[2]) = jacDouble(\n        point[0],\n        point[1],\n        point[2],\n        _aa,\n        _pp);\n    }\n    return (qx, qy, qz);\n  }\n\n  /// some optimized functions working with Jacobi coordinates\n\n  function ecAdd_J_Mixed(\n    uint256 _x1,\n    uint256 _y1,\n    uint256 _z1,\n    uint256 _x2,\n    uint256 _y2,\n    uint256 _aa,\n    uint256 _pp)\n    public pure returns(uint256 x, uint256 y, uint256 z)\n  {\n    // Double if x1==x2 else add\n    if (_x1==_x2) {\n      (x, y, z) = jacDouble(\n        _x1,\n        _y1,\n        _z1,\n        _aa,\n        _pp);\n    } else {\n      (x, y, z) = jacAdd(\n        _x1,\n        _y1,\n        _z1,\n        _x2,\n        _y2,\n        1,\n        _pp);\n    }\n  }\n\n  function ecSub_J(\n    uint256 _x1,\n    uint256 _y1,\n    uint256 _z1,\n    uint256 _x2,\n    uint256 _y2,\n    uint256 _z2,\n    uint256 _pp)\n  public pure returns(uint256, uint256, uint256)\n  {\n    // invert square\n    (_x2, _y2, _z2) =  toAffine3(_x2, _y2, _z2, _pp);\n    _y2 = _pp - _y2;\n\n    // P1-square\n    return jacAdd(\n        _x1,\n        _y1,\n        _z1,\n        _x2,\n        _y2,\n        _z2,\n        _pp);\n  }\n\n function ecSub_J_optim(\n    uint256 _x1,\n    uint256 _y1,\n    uint256 _z1,\n    uint256 _x2,\n    uint256 _y2,\n    uint256 _z2,\n    uint256 invmod_result,\n    uint256 _pp)\n  public pure returns(uint256, uint256, uint256)\n  {\n    // invert square\n    (_x2, _y2, _z2) =  toAffine3_optim(_x2, _y2, _z2, invmod_result, _pp);\n    _y2 = _pp - _y2;\n\n    // P1-square\n    return jacAdd(\n        _x1,\n        _y1,\n        _z1,\n        _x2,\n        _y2,\n        _z2,\n        _pp);\n  }\n\n  function OVN_add(uint aa, uint[3] memory P, uint[3] memory Q, uint p) internal pure returns (uint, uint, uint) { // a moved to beginning due to stack deep error; a is not used in the later parts of func\n        if(P[2] == 0)\n            return (Q[0], Q[1], Q[2]);\n        if(Q[2] == 0)\n            return (P[0], P[1], P[2]);\n\n        uint[3] memory R;\n        uint[4] memory zs; // Pz^2, Pz^3, Qz^2, Qz^3\n        zs[0] = mulmod(P[2], P[2], p);\n        zs[1] = mulmod(P[2], zs[0], p);\n        zs[2] = mulmod(Q[2], Q[2], p);\n        zs[3] = mulmod(Q[2], zs[2], p);\n        uint[4] memory us = [\n            mulmod(P[0], zs[2], p),\n            mulmod(P[1], zs[3], p),\n            mulmod(Q[0], zs[0], p),\n            mulmod(Q[1], zs[1], p)\n        ]; // Pu, Ps, Qu, Qs\n        if (us[0] == us[2]) {\n            if (us[1] != us[3]){\n                uint[3] memory rt;\n                return (rt[0], rt[1], rt[2]);\n\n            } else {\n                return jacDouble(P[0], P[1], P[2], aa, p);\n            }\n        }\n\n        uint[3] memory h123; // h values were merged together to avoid stack too deep error.\n        h123[0] = addmod(us[2], p - us[0], p);\n        h123[1] = mulmod(h123[0], h123[0], p);\n        h123[2] = mulmod(h123[1], h123[0], p);\n\n        uint r = addmod(us[3], p - us[1], p);\n        uint Rx = addmod(mulmod(r, r, p), p - h123[2], p);\n        Rx = addmod(Rx, p - mulmod(2, mulmod(us[0], h123[1], p), p), p);\n        R[0] = Rx;\n        R[1] = mulmod(r, addmod(mulmod(us[0], h123[1], p), p - Rx, p), p);\n        R[1] = addmod(R[1], p - mulmod(us[1], h123[2], p), p);\n        R[2] = mulmod(h123[0], mulmod(P[2], Q[2], p), p);\n        return (R[0], R[1], R[2]);\n    }\n\n\n  function OVN_addMixed(uint[3] memory P, uint[2] memory Q, uint aa, uint p) internal pure returns (uint, uint, uint) {\n        if(P[2] == 0)\n            return (Q[0], Q[1], 1);\n        if(Q[1] == 0)\n            return (P[0], P[1], P[2]);\n\n        uint[3] memory R;\n        uint[2] memory zs; // Pz^2, Pz^3, Qz^2, Qz^3\n        zs[0] = mulmod(P[2], P[2], p);\n        zs[1] = mulmod(P[2], zs[0], p);\n        uint[4] memory us = [\n            P[0],\n            P[1],\n            mulmod(Q[0], zs[0], p),\n            mulmod(Q[1], zs[1], p)\n        ]; // Pu, Ps, Qu, Qs\n        if (us[0] == us[2]) {\n            if (us[1] != us[3]) {\n                R[0] = 0;\n                R[1] = 0;\n                R[2] = 0;\n                return (R[0], R[1], R[2]);\n            }\n            else {\n                 return jacDouble(P[0], P[1], P[2], aa, p);\n            }\n        }\n        uint h = addmod(us[2], p - us[0], p);\n        uint r = addmod(us[3], p - us[1], p);\n        uint h2 = mulmod(h, h, p);\n        uint h3 = mulmod(h2, h, p);\n        uint Rx = addmod(mulmod(r, r, p), p - h3, p);\n        Rx = addmod(Rx, p - mulmod(2, mulmod(us[0], h2, p), p), p);\n        R[0] = Rx;\n        R[1] = mulmod(r, addmod(mulmod(us[0], h2, p), p - Rx, p), p);\n        R[1] = addmod(R[1], p - mulmod(us[1], h3, p), p);\n        R[2] = mulmod(h, P[2], p);\n        return (R[0], R[1], R[2]);\n    }\n\n}\n\n\n",
  "sourcePath": "/home/xhosal00/projects/pp/contracts/lib/EC.sol",
  "compiler": {
    "name": "solc",
    "version": "0.5.8+commit.23d335f2.Emscripten.clang"
  },
  "schemaVersion": "3.3.4",
  "updatedAt": "2021-06-16T22:23:25.730Z",
  "devdoc": {
    "author": "Witnet Foundation SPDX-License-Identifier: MIT",
    "details": "Library providing arithmetic operations over elliptic curves.",
    "methods": {
      "deriveY(uint8,uint256,uint256,uint256,uint256)": {
        "details": "Derives the y coordinate from a compressed-format point x.",
        "params": {
          "_aa": "constant of curve",
          "_bb": "constant of curve",
          "_pp": "the modulus",
          "_prefix": "parity byte (0x02 even, 0x03 odd)",
          "_x": "coordinate x"
        },
        "return": "y coordinate y"
      },
      "ecAdd(uint256,uint256,uint256,uint256,uint256,uint256)": {
        "details": "Add two points (x1, y1) and (x2, y2) in affine coordinates.",
        "params": {
          "_aa": "constant of the curve",
          "_pp": "the modulus",
          "_x1": "coordinate x of P1",
          "_x2": "coordinate x of P2",
          "_y1": "coordinate y of P1",
          "_y2": "coordinate y of P2"
        },
        "return": "(qx, qy) = P1+P2 in affine coordinates"
      },
      "ecInv(uint256,uint256,uint256)": {
        "details": "Calculate inverse (x, -y) of point (x, y).",
        "params": {
          "_pp": "the modulus",
          "_x": "coordinate x of P1",
          "_y": "coordinate y of P1"
        },
        "return": "(x, -y)"
      },
      "ecMul(uint256,uint256,uint256,uint256,uint256)": {
        "details": "Multiply point (x1, y1, z1) times d in affine coordinates.",
        "params": {
          "_aa": "constant of the curve",
          "_k": "scalar to multiply",
          "_pp": "the modulus",
          "_x": "coordinate x of P1",
          "_y": "coordinate y of P1"
        },
        "return": "(qx, qy) = d*P in affine coordinates"
      },
      "ecSub(uint256,uint256,uint256,uint256,uint256,uint256)": {
        "details": "Substract two points (x1, y1) and (x2, y2) in affine coordinates.",
        "params": {
          "_aa": "constant of the curve",
          "_pp": "the modulus",
          "_x1": "coordinate x of P1",
          "_x2": "coordinate x of P2",
          "_y1": "coordinate y of P1",
          "_y2": "coordinate y of P2"
        },
        "return": "(qx, qy) = P1-P2 in affine coordinates"
      },
      "expMod(uint256,uint256,uint256)": {
        "details": "Modular exponentiation, b^e % _pp. Source: https://github.com/androlo/standard-contracts/blob/master/contracts/src/crypto/ECCMath.sol",
        "params": {
          "_base": "base",
          "_exp": "exponent",
          "_pp": "modulus"
        },
        "return": "r such that r = b**e (mod _pp)"
      },
      "invMod(uint256,uint256)": {
        "details": "Modular euclidean inverse of a number (mod p).",
        "params": {
          "_pp": "The modulus",
          "_x": "The number"
        },
        "return": "q such that x*q = 1 (mod _pp)"
      },
      "invMod_optim(uint256,uint256,uint256)": {
        "details": "invMod_optim: Takes base, modulus, and result, verifies (base*user_result) % modulus==1, and returns result.                  It's far cheaper to verify an inverse operation on-chain than calculate it, so we allow the user to pass their own result.      * The idea was find in BigNumber library for solidity (https://github.com/zcoinofficial/solidity-BigNumber)      * parameter: instance base parameter: instance modulus parameter: instance user_result returns: user_result."
      },
      "isOnCurve(uint256,uint256,uint256,uint256,uint256)": {
        "details": "Check whether point (x,y) is on curve defined by a, b, and _pp.",
        "params": {
          "_aa": "constant of curve",
          "_bb": "constant of curve",
          "_pp": "the modulus",
          "_x": "coordinate x of P1",
          "_y": "coordinate y of P1"
        },
        "return": "true if x,y in the curve, false else"
      },
      "toAffine(uint256,uint256,uint256,uint256)": {
        "details": "Converts a point (x, y, z) expressed in Jacobian coordinates to affine coordinates (x', y', 1).",
        "params": {
          "_pp": "the modulus",
          "_x": "coordinate x",
          "_y": "coordinate y",
          "_z": "coordinate z"
        },
        "return": "(x', y') affine coordinates"
      }
    },
    "title": "Elliptic Curve Library"
  },
  "userdoc": {
    "methods": {
      "ecAdd_J_Mixed(uint256,uint256,uint256,uint256,uint256,uint256,uint256)": {
        "notice": "some optimized functions working with Jacobi coordinates"
      }
    }
  }
}