{
  "contractName": "FastEcMul",
  "abi": [
    {
      "constant": true,
      "inputs": [
        {
          "name": "_k",
          "type": "uint256"
        },
        {
          "name": "_nn",
          "type": "uint256"
        },
        {
          "name": "_lambda",
          "type": "uint256"
        }
      ],
      "name": "decomposeScalar",
      "outputs": [
        {
          "name": "",
          "type": "int256"
        },
        {
          "name": "",
          "type": "int256"
        }
      ],
      "payable": false,
      "stateMutability": "pure",
      "type": "function"
    },
    {
      "constant": true,
      "inputs": [
        {
          "name": "_scalars",
          "type": "int256[4]"
        },
        {
          "name": "_points",
          "type": "uint256[6]"
        },
        {
          "name": "_aa",
          "type": "uint256"
        },
        {
          "name": "_beta",
          "type": "uint256"
        },
        {
          "name": "_pp",
          "type": "uint256"
        }
      ],
      "name": "ecSimMul",
      "outputs": [
        {
          "name": "",
          "type": "uint256"
        },
        {
          "name": "",
          "type": "uint256"
        },
        {
          "name": "",
          "type": "uint256"
        }
      ],
      "payable": false,
      "stateMutability": "pure",
      "type": "function"
    }
  ],
  "bytecode": "0x611450610026600b82828239805160001a60731461001957fe5b30600052607381538281f3fe730000000000000000000000000000000000000000301460806040526004361061005c577c01000000000000000000000000000000000000000000000000000000006000350463bb25afb78114610061578063fcc8f072146100a3575b600080fd5b61008a6004803603606081101561007757600080fd5b508035906020810135906040013561014b565b6040805192835260208301919091528051918290030190f35b61012d60048036036101a08110156100ba57600080fd5b8101908080608001906004806020026040519081016040528092919082600460200280828437600092019190915250506040805160c08181019092529295949381810193925090600690839083908082843760009201919091525091945050813592505060208101359060400135610389565b60408051938452602084019290925282820152519081900360600190f35b600080600084868161015957fe5b069050610164611340565b6001815260006020820152610177611340565b858152602081018790525b61018b87610414565b8151106101d2578051602082015160009190816101a457fe5b8351602080860180519490930482810290940386529152845190850180519282029092038552905250610182565b6101da61135e565b81518152825160009081036020838101919091528084015160408401528401519003606082015261020961137c565b6060820151610218908661044f565b60408401526020830152815261022c61137c565b602083015161023e906000038761044f565b604084015260208301528152610252611340565b6020830151835161028491608060020a6001608060020a039283160291161760028d048560026020020151018d6104a7565b60208301528152610293611340565b602083015183516102c591608060020a6001608060020a039283160291161760028e048560026020020151018e6104a7565b8260006020020183600160200201919091525260008c866002602002015183600060200201510287600060200201518560006020020151028b03038161030757fe5b07905060008d87600360200201518460006020020151028860016020020151866000602002015160000302038161033a57fe5b07905060028e0461034a8361060a565b116103545761035a565b8d820391505b60028e046103678261060a565b1161037157610375565b8d90035b909e909d509b505050505050505050505050565b600080600061039661135e565b600080805b60048110156103e7576103bd8c82600481106103b357fe5b6020020151610621565b8583600481106103c957fe5b60200201919091529150828211156103df578192505b60010161039b565b5060008060006103fb86868f8f8f8f61069f565b919a50985096505050505050505b955095509592505050565b600060026001830104825b8082101561044657508060028180868161043557fe5b04018161043e57fe5b04915061041f565b9150505b919050565b608060020a6001608060020a0382811681851681810284810485880493840280861691909101868804938402808716919091018781049490950293909301908690040194909104939093019290821691169250925092565b600080600060808487816104b757fe5b049060020a02905060008487816104ca57fe5b06905060005b600281900a8604156104e4576001016104d0565b61010003608081116104ff57608081900360020a870461050a565b607f19810160020a87025b600282900a89810291909101925087026001608060020a031661052b611340565b600283900a88026001608060020a0381168252608060020a9004602082018190526000908190868161055957fe5b0490508260016020020151868161056c57fe5b845191900692506001608060020a03828116820290811691608060020a8085049091029104015b838111806105aa575083811480156105aa57508582115b156105de578451602086015196016001608060020a03811696608060020a9091040193909301926000199290920191610593565b979091019c60029590950a96909103608060020a02999099019890980393909304975095505050505050565b600080821261061a57508061044a565b5060000390565b6000806000808412610634576001610638565b6000195b6040805161012c8101909152909150848202906000805b831561069257600184161561068157601084069050601060088211028185030193506008850260080385820201828401535b60018201915060028404935061064f565b5090945092505050915091565b60008060006106ac61137c565b6106b461139a565b6106c1818a8a8a8a610b4f565b896000805b8215610b2c5784516020860151604087015160001995909501946106ed9291908e8d610f46565b60408801526020870152855250508b518101805160001a9060088211156107a8578451602086015160408701518651610797939291906002600f889003046004811061073557fe5b60200201515188518e906002600f8a9003046004811061075157fe5b6020020151600160200201518f038161076657fe5b068960005b6020020151600289600f038161077d57fe5b046004811061078857fe5b6020020151604001518f611074565b60408801526020870152855261081d565b811561081d578451602086015160408701518651610810939291906002600019880104600481106107d557fe5b60200201515188516002600019890104600481106107ef57fe5b6020020151600160200201518960005b602002015160026000198a0161077d565b6040880152602087015285525b505060208c01518101805160001a9060088211156108ba5784516020808701516040880151918701516108a99392906002600f889003046004811061085e57fe5b6020020151600060200201518d8960016020020151600289600f038161088057fe5b046004811061088b57fe5b6020020151600160200201518f03816108a057fe5b0689600161076b565b60408801526020870152855261092b565b811561092b57845160208087015160408801519187015161091e9392906002600019880104600481106108e957fe5b60209081029190910151519089015160026000198901046004811061090a57fe5b6020020151600160200201518960016107ff565b6040880152602087015285525b505060408c01518101805160001a9060088211156109bb5784516020860151604080880151908701516109aa939291906002600f889003046004811061096d57fe5b60200201515160408901518e906002600f8a9003046004811061098c57fe5b6020020151600160200201518f03816109a157fe5b0689600261076b565b604088015260208701528552610a29565b8115610a29578451602086015160408088015190870151610a1c939291906002600019880104600481106109eb57fe5b6020020151516040890151600260001989010460048110610a0857fe5b6020020151600160200201518960026107ff565b6040880152602087015285525b505060608c01518101805160001a906008821115610ab9578451602086015160408701516060870151610aa8939291906002600f8890030460048110610a6b57fe5b60200201515160608901518e906002600f8a90030460048110610a8a57fe5b6020020151600160200201518f0381610a9f57fe5b0689600361076b565b604088015260208701528552610b27565b8115610b27578451602086015160408701516060870151610b1a93929190600260001988010460048110610ae957fe5b6020020151516060890151600260001989010460048110610b0657fe5b6020020151600160200201518960036107ff565b6040880152602087015285525b6106c6565b505082516020840151604090940151909d939c509a509198505050505050505050565b610b576113c8565b610b5f61137c565b865160408051606081018252885181526020808a0151908201529193508101876002602002015190528252610bab8260005b602090810291909101515184519091015160018887610f46565b604084015260208301528152610bf28160005b6020908102919091015183820151604085015186518051940151929391929091908760005b60200201516040015189611074565b602080860151604081019290925281019190915252610c398160005b6020908102919091015183820151604085015186840151805194015192939192909190876001610be3565b60408086015190810191909152602081019190915252610c828160005b602090810291909101518382015160408086015190870151805194015192939192909190876002610be3565b60608086015160408082019390935260208101939093529290915280519182019052808480610cad57fe5b885187098152602088810151818301526040808a01519281019290925289015191909152805160608101909152808480610ce357fe5b6020850151518709815260208481018051820151828401525160409081015192810192909252898101510191909152805160608101909152808480610d2457fe5b60408501515187098152604084810180516020908101518185015290518201519282019290925290890151810191909152805160608101909152808480610d6757fe5b60608501515187098152606093840180516020908101518184015290516040908101519281019290925289810151850192909252888101518151808601835294890151855260808901519285019290925260a088015190840152918252610dcf826000610b91565b604084015260208301528152610de6816000610bbe565b602080860151604081019290925281019190915252610e06816000610c0e565b60408086015190810191909152602081019190915252610e27816000610c56565b60608086015160408082019390935260208101939093529290915280519182019052808480610e5257fe5b6060890151870981526080880151602082015260a08801516040918201526060898101519290925280519182019052808480610e8a57fe5b60208501515187098152602084810180518201518284015251604090810151928101929092526060808b01519091019290925280519182019052808480610ecd57fe5b604085015151870981526040848101805160209081015190840152518101519181019190915260608981015182019290925280519182019052808480610f0f57fe5b6060850151518709815260609384018051602090810151908301525160409081015191015296820151909101959095525050505050565b6000808085610f5c575086915085905084610409565b610f6461137c565b8480610f6c57fe5b898a0981528480610f7957fe5b88890960208201528480610f8957fe5b878809604082015260008580610f9b57fe5b8680610fa357fe5b60208401518c09600409905060008680610fb957fe5b8780610fc157fe5b8880610fc957fe5b604086015180098a098880610fda57fe5b855160030908905060008780610fec57fe5b8880610ff457fe5b8485088903898061100157fe5b8485090890506000888061101157fe5b898061101957fe5b8a8061102157fe5b602088015180096008098a038a8061103557fe5b8b8061103d57fe5b858d03880886090890506000898061105157fe5b8a8061105957fe5b8d8f09600209929e919d50919b509950505050505050505050565b6000808089158015611084575088155b15611096575085915084905083611333565b861580156110a2575085155b156110b4575088915087905086611333565b6110bc61135e565b84806110c457fe5b898a09815284806110d157fe5b81518a09602082015284806110e257fe5b868709604082015284806110f257fe5b604082015187096060820152604080516080810190915280868061111257fe5b60408401518e098152602001868061112657fe5b60608401518d098152602001868061113a57fe5b83518b098152602001868061114b57fe5b60208401518a0990526040810151815191925014156112135760608101516020820151146111c3576040805160e560020a62461bcd02815260206004820152600a60248201527f57726f6e67206461746100000000000000000000000000000000000000000000604482015290519081900360640190fd5b6040805160e560020a62461bcd02815260206004820152601260248201527f55736520646f75626c6520696e73746561640000000000000000000000000000604482015290519081900360640190fd5b61121b61135e565b858061122357fe5b8251604084015190880390088152858061123957fe5b6020830151606084015190880390086020820152858061125557fe5b815180096040820152858061126657fe5b815160408301510960608201526000868061127d57fe5b60608301518803888061128c57fe5b60208501518009089050868061129e57fe5b87806112a657fe5b88806112ae57fe5b6040850151865109600209880382089050600087806112c957fe5b88806112d157fe5b838a038a806112dc57fe5b604087015188510908602085015109905087806112f557fe5b88806112fd57fe5b60608501516020870151098903820890506000888061131857fe5b898061132057fe5b8b8f098551099297509095509093505050505b9750975097945050505050565b60405180604001604052806002906020820280388339509192915050565b60405180608001604052806004906020820280388339509192915050565b60405180606001604052806003906020820280388339509192915050565b6040518061060001604052806004905b6113b26113f6565b8152602001906001900390816113aa5790505090565b6040518061018001604052806004905b6113e061137c565b8152602001906001900390816113d85790505090565b6040518061018001604052806004905b61140e61137c565b815260200190600190039081611406579050509056fea165627a7a72305820759b11b11b2099c7a25848632fe15f9e0b01ad7ce36bd6ef857f01309067f4270029",
  "source": "// pragma solidity ^0.5.8;\npragma solidity >=0.5.8 <0.8.0;\n\nimport \"./EC.sol\";\n\n\n/**\n * @title Fast Elliptic Curve Multiplication Library\n * @dev Library providing the following speed ups to an elliptic curve multiplication operation.\n * - wNAF scalar representation\n * - scalar decomposition through endomorphism\n * @author Witnet Foundation\n * SPDX-License-Identifier: MIT\n */\nlibrary FastEcMul {\n\n  /// @dev Decomposition of the scalar k in two scalars k1 and k2 with half bit-length, such that k=k1+k2*LAMBDA (mod n)\n  /// @param _k the scalar to be decompose\n  /// @param _nn the modulus\n  /// @param _lambda is a root of the characteristic polynomial of an endomorphism of the curve\n  /// @return k1 and k2  such that k=k1+k2*LAMBDA (mod n)\n  function decomposeScalar (uint256 _k, uint256 _nn, uint256 _lambda) public pure returns (int256, int256) {\n    uint256 k = _k % _nn;\n    // Extended Euclidean Algorithm for n and LAMBDA\n    int256[2] memory t;\n    t[0] = 1;\n    t[1] = 0;\n    uint256[2] memory r;\n    r[0] = uint256(_lambda);\n    r[1] = uint256(_nn);\n\n    while (uint256(r[0]) >= _sqrt(_nn)) {\n      uint256 quotient = r[1] / r[0];\n      (r[1], r[0]) = (r[0], r[1] - quotient*r[0]);\n      (t[1], t[0]) = (t[0], t[1] - int256(quotient)*t[0]);\n    }\n    int256[4] memory ab;\n\n    // the vectors v1=(a1, b1) and v2=(a2,b2)\n    ab[0] = int256(r[0]);\n    ab[1] = int256(0 - t[0]);\n    ab[2] = int256(r[1]);\n    ab[3] = 0 - t[1];\n\n    //b2*K\n    uint[3] memory test;\n    (test[0],test[1], test[2]) = _multiply256(uint(ab[3]), uint(k));\n\n    //-b1*k\n    uint[3] memory test2;\n    (test2[0], test2[1], test2[2]) = _multiply256(uint(-ab[1]), uint(k));\n\n    //c1 and c2\n    uint[2] memory c1;\n    (c1[0],c1[1]) = _bigDivision(uint256 (uint128 (test[0])) << 128 | uint128 (test[1]), uint256(test[2]) + (_nn / 2), _nn);\n    uint[2] memory c2;\n    (c2[0],c2[1]) = _bigDivision(uint256 (uint128 (test2[0])) << 128 | uint128 (test2[1]), uint256(test2[2]) + (_nn / 2), _nn);\n\n    // the decomposition of k in k1 and k2\n    int256 k1 = int256((int256(k) - int256(c1[0]) * int256(ab[0]) - int256(c2[0]) * int256(ab[2])) % int256(_nn));\n    int256 k2 = int256((-int256(c1[0]) * int256(ab[1]) - int256(c2[0]) * int256(ab[3])) % int256(_nn));\n    if (uint256(_abs(k1)) <= (_nn / 2)) {\n      k1 = k1;\n    } else {\n      k1 = int256(uint256(k1) - _nn);\n    }\n    if (uint256(_abs(k2)) <= (_nn / 2)) {\n      k2 = k2;\n    } else {\n      k2 = int256(uint256(k2) - _nn);\n    }\n\n    return (k1, k2);\n  }\n\n  /// @notice Simultaneous multiplication of the form kP + lQ.\n  /// @dev Scalars k and l are expected to be decomposed such that k = k1 + k2 λ, and l = l1 + l2 λ,\n  /// where λ is specific to the endomorphism of the curve.\n  /// @param _scalars An array with the decomposition of k and l values, i.e., [k1, k2, l1, l2]\n  /// @param _points An array with the affine coordinates of both P and Q, i.e., [P1, P2, Q1, Q2]\n  function ecSimMul(\n    int256[4] memory _scalars,\n    uint256[6] memory _points,\n    uint256 _aa,\n    uint256 _beta,\n    uint256 _pp)\n  public pure returns (uint256, uint256, uint256)\n  {\n    uint256[4] memory wnaf;\n    uint256 maxCount = 0;\n    uint256 count = 0;\n\n    for (uint j = 0; j<4; j++) {\n      (wnaf[j], count) = _wnaf(_scalars[j]);\n      if (count > maxCount) {\n        maxCount = count;\n      }\n    }\n\n    (uint256 x, uint256 y, uint256 z) = _simMulWnaf(\n      wnaf,\n      maxCount,\n      _points,\n      _aa,\n      _beta,\n      _pp);\n\n    return (x, y, z);\n  }\n\n  /// @dev Compute the look up table for the simultaneous multiplication (P, 3P,..,Q,3Q,..).\n  /// @param _iP the look up table were values will be stored\n  /// @param _points the points P and Q to be multiplied\n  /// @param _aa constant of the curve\n  /// @param _beta constant of the curve (endomorphism)\n  /// @param _pp the modulus\n  /// return (qx, qy, qz) d*P1 in Jacobian\n  function _lookupSimMul(\n    uint256[3][4][4] memory _iP,\n    uint256[6] memory _points,\n    uint256 _aa,\n    uint256 _beta,\n    uint256 _pp\n  ) private pure\n  {\n    uint256[3][4] memory iPj;\n    uint256[3] memory double;\n\n    // P1 Lookup Table\n    iPj = _iP[0];\n    iPj[0] = [_points[0], _points[1], _points[2]]; // P1\n\n    (double[0], double[1], double[2]) = EC.jacDouble(\n      iPj[0][0],\n      iPj[0][1],\n      1,\n      _aa,\n      _pp);\n    (iPj[1][0], iPj[1][1], iPj[1][2]) = EC.jacAdd(\n      double[0],\n      double[1],\n      double[2],\n      iPj[0][0],\n      iPj[0][1],\n      iPj[0][2],\n      _pp);\n    (iPj[2][0], iPj[2][1], iPj[2][2]) = EC.jacAdd(\n      double[0],\n      double[1],\n      double[2],\n      iPj[1][0],\n      iPj[1][1],\n      iPj[1][2],\n      _pp);\n    (iPj[3][0], iPj[3][1], iPj[3][2]) = EC.jacAdd(\n      double[0],\n      double[1],\n      double[2],\n      iPj[2][0],\n      iPj[2][1],\n      iPj[2][2],\n      _pp);\n\n    // P2 Lookup Table\n    _iP[1][0] = [mulmod(_beta, _points[0], _pp), _points[1], _points[2]];\t// P2\n\n    _iP[1][1] = [mulmod(_beta, iPj[1][0], _pp), iPj[1][1], iPj[1][2]];\n    _iP[1][2] = [mulmod(_beta, iPj[2][0], _pp), iPj[2][1], iPj[2][2]];\n    _iP[1][3] = [mulmod(_beta, iPj[3][0], _pp), iPj[3][1], iPj[3][2]];\n\n    // Q1 Lookup Table\n    iPj = _iP[2];\n    iPj[0] = [_points[3], _points[4], _points[5]];\t// Q1\n    (double[0], double[1], double[2]) = EC.jacDouble(\n      iPj[0][0],\n      iPj[0][1],\n      1,\n      _aa,\n      _pp);\n    (iPj[1][0], iPj[1][1], iPj[1][2]) = EC.jacAdd(\n      double[0],\n      double[1],\n      double[2],\n      iPj[0][0],\n      iPj[0][1],\n      iPj[0][2],\n      _pp);\n    (iPj[2][0], iPj[2][1], iPj[2][2]) = EC.jacAdd(\n      double[0],\n      double[1],\n      double[2],\n      iPj[1][0],\n      iPj[1][1],\n      iPj[1][2],\n      _pp);\n    (iPj[3][0], iPj[3][1], iPj[3][2]) = EC.jacAdd(\n      double[0],\n      double[1],\n      double[2],\n      iPj[2][0],\n      iPj[2][1],\n      iPj[2][2],\n      _pp);\n\n    // Q2 Lookup Table\n    _iP[3][0] = [mulmod(_beta, _points[3], _pp), _points[4], _points[5]];\t// P2\n\n    _iP[3][1] = [mulmod(_beta, iPj[1][0], _pp), iPj[1][1], iPj[1][2]];\n    _iP[3][2] = [mulmod(_beta, iPj[2][0], _pp), iPj[2][1], iPj[2][2]];\n    _iP[3][3] = [mulmod(_beta, iPj[3][0], _pp), iPj[3][1], iPj[3][2]];\n  }\n\n  /// @dev WNAF integer representation. Computes the WNAF representation of an integer, and puts the resulting array of coefficients in memory.\n  /// @param _k A 256-bit integer\n  /// @return (ptr, length) The pointer to the first coefficient, and the total length of the array\n  function _wnaf(int256 _k) private pure returns (uint256, uint256) {\n    int sign = _k < 0 ? -1 : int(1);\n    uint256 k = uint256(sign * _k);\n\n    uint256 ptr;\n    uint256 length = 0;\n    assembly\n    {\n      let ki := 0\n      ptr := mload(0x40) // Get free memory pointer\n      mstore(0x40, add(ptr, 300)) // Updates free memory pointer to +300 bytes offset\n      for { } gt(k, 0) { } { // while k > 0\n        if and(k, 1) {  // if k is odd:\n          ki := mod(k, 16)\n          k := add(sub(k, ki), mul(gt(ki, 8), 16))\n          // if sign = 1, store ki; if sign = -1, store 16 - ki\n          mstore8(add(ptr, length), add(mul(ki, sign), sub(8, mul(sign, 8))))\n        }\n        length := add(length, 1)\n        k := div(k, 2)\n      }\n    }\n\n    return (ptr, length);\n  }\n\n  /// @dev Compute the simultaneous multiplication with wnaf decomposed scalar.\n  /// @param _wnafPointer the decomposed scalars to be multiplied in wnaf form (k1, k2, l1, l2)\n  /// @param _points the points P and Q to be multiplied\n  /// @param _aa constant of the curve\n  /// @param _beta constant of the curve (endomorphism)\n  /// @param _pp the modulus\n  /// @return (qx, qy, qz) d*P1 in Jacobian\n  function _simMulWnaf(\n    uint256[4] memory _wnafPointer,\n    uint256 _length,\n    uint256[6] memory _points,\n    uint256 _aa,\n    uint256 _beta,\n    uint256 _pp)\n  private pure  returns (uint256, uint256, uint256)\n  {\n    uint[3] memory mulPoint;\n    uint256[3][4][4] memory iP;\n    _lookupSimMul(\n      iP,\n      _points,\n      _aa,\n      _beta,\n      _pp);\n\n    uint256 i = _length;\n    uint256 ki;\n    uint256 ptr;\n    while (i > 0) {\n      i--;\n\n      (mulPoint[0], mulPoint[1], mulPoint[2]) = EC.jacDouble(\n        mulPoint[0],\n        mulPoint[1],\n        mulPoint[2],\n        _aa,\n        _pp);\n\n      ptr = _wnafPointer[0] + i;\n      assembly {\n        ki := byte(0, mload(ptr))\n      }\n\n      if (ki > 8) {\n        (mulPoint[0], mulPoint[1], mulPoint[2]) = EC.jacAdd(\n          mulPoint[0],\n          mulPoint[1],\n          mulPoint[2],\n          iP[0][(15 - ki) / 2][0],\n          (_pp - iP[0][(15 - ki) / 2][1]) % _pp, iP[0][(15 - ki) / 2][2],\n          _pp);\n      } else if (ki > 0) {\n        (mulPoint[0], mulPoint[1], mulPoint[2]) = EC.jacAdd(\n          mulPoint[0],\n          mulPoint[1],\n          mulPoint[2],\n          iP[0][(ki - 1) / 2][0], iP[0][(ki - 1) / 2][1],\n          iP[0][(ki - 1) / 2][2],\n          _pp);\n      }\n\n      ptr = _wnafPointer[1] + i;\n      assembly {\n        ki := byte(0, mload(ptr))\n      }\n\n      if (ki > 8) {\n        (mulPoint[0], mulPoint[1], mulPoint[2]) = EC.jacAdd(\n          mulPoint[0],\n          mulPoint[1],\n          mulPoint[2],\n          iP[1][(15 - ki) / 2][0],\n          (_pp - iP[1][(15 - ki) / 2][1]) % _pp, iP[1][(15 - ki) / 2][2],\n          _pp);\n\n      } else if (ki > 0) {\n        (mulPoint[0], mulPoint[1], mulPoint[2]) = EC.jacAdd(\n          mulPoint[0],\n          mulPoint[1],\n          mulPoint[2],\n          iP[1][(ki - 1) / 2][0],\n          iP[1][(ki - 1) / 2][1], iP[1][(ki - 1) / 2][2],\n          _pp);\n      }\n\n      ptr = _wnafPointer[2] + i;\n      assembly {\n        ki := byte(0, mload(ptr))\n      }\n\n      if (ki > 8) {\n        (mulPoint[0], mulPoint[1], mulPoint[2]) = EC.jacAdd(\n          mulPoint[0],\n          mulPoint[1],\n          mulPoint[2],\n          iP[2][(15 - ki) / 2][0],\n          (_pp - iP[2][(15 - ki) / 2][1]) % _pp, iP[2][(15 - ki) / 2][2],\n          _pp);\n      } else if (ki > 0) {\n        (mulPoint[0], mulPoint[1], mulPoint[2]) = EC.jacAdd(\n          mulPoint[0],\n          mulPoint[1],\n          mulPoint[2],\n          iP[2][(ki - 1) / 2][0],\n          iP[2][(ki - 1) / 2][1],\n          iP[2][(ki - 1) / 2][2],\n          _pp);\n      }\n\n      ptr = _wnafPointer[3] + i;\n      assembly {\n        ki := byte(0, mload(ptr))\n      }\n\n      if (ki > 8) {\n        (mulPoint[0], mulPoint[1], mulPoint[2]) = EC.jacAdd(\n          mulPoint[0],\n          mulPoint[1],\n          mulPoint[2],\n          iP[3][(15 - ki) / 2][0],\n          (_pp - iP[3][(15 - ki) / 2][1]) % _pp,\n          iP[3][(15 - ki) / 2][2],\n          _pp);\n      } else if (ki > 0) {\n        (mulPoint[0], mulPoint[1], mulPoint[2]) = EC.jacAdd(\n          mulPoint[0],\n          mulPoint[1],\n          mulPoint[2],\n          iP[3][(ki - 1) / 2][0],\n          iP[3][(ki - 1) / 2][1], iP[3][(ki - 1) / 2][2],\n          _pp);\n      }\n    }\n\n    return (mulPoint[0], mulPoint[1], mulPoint[2]);\n  }\n\n  /// @dev Multiplication of a uint256 a and uint256 b. Because in Solidity each variable can not be greater than 256 bits,\n  /// this function separates the result of the multiplication in three parts, so the result would be the concatenation of those three.\n  /// @param _a uint256\n  /// @param _b uint256\n  /// @return (ab2, ab1, ab0)\n  function _multiply256(uint256 _a, uint256 _b) private pure returns (uint256, uint256, uint256) {\n    uint256 aM = _a >> 128;\n    uint256 am = _a & 2**128-1;\n    uint256 bM = _b >> 128;\n    uint256 bm = _b & 2**128-1;\n    uint256 ab0 = am * bm;\n    uint256 ab1 = (ab0 >> 128) + (aM * bm & 2**128-1) + (am * bM & 2**128 - 1);\n    uint256 ab2 = (ab1 >> 128) + aM * bM + (aM * bm >> 128) + (am * bM >> 128);\n    ab1 &= 2**128 - 1;\n    ab0 &= 2**128 - 1;\n\n    return (ab2, ab1, ab0);\n  }\n\n  /// @dev Division of an integer of 312 bits by a 256-bit integer.\n  /// @param _aM the higher 256 bits of the numarator\n  /// @param _am the lower 128 bits of the numarator\n  /// @param _b the 256-bit denominator\n  /// @return q the result of the division and the rest r\n  function _bigDivision(uint256 _aM, uint256 _am, uint256 _b) private pure returns (uint256, uint256) {\n    uint256 qM = (_aM / _b) << 128;\n    uint256 aM = _aM % _b;\n\n    uint256 shift = 0;\n    while (_b >> shift > 0) {\n      shift++;\n    }\n    shift = 256 - shift;\n    aM = (_aM << shift) + (shift > 128 ? _am << (shift - 128) : _am >> (128 - shift));\n    uint256 a0 = (_am << shift) & 2**128-1;\n    uint256[2] memory b;\n\n    (b[1], b[0]) = ((_b << shift) >> 128, (_b << shift) & 2**128-1);\n\n    uint256 rM;\n    uint256 q = aM / b[1];\n    rM = aM % b[1];\n\n    uint256 rsub0 = (q & 2**128-1) * b[0];\n    uint256 rsub21 = (q >> 128) * b[0] + (rsub0 >> 128);\n    rsub0 &= 2**128-1;\n\n    while (rsub21 > rM || rsub21 == rM && rsub0 > a0) {\n      q--;\n      a0 += b[0];\n      rM += b[1] + (a0 >> 128);\n      a0 &= 2**128-1;\n    }\n\n    q += qM;\n    uint256 r = (((rM - rsub21) << 128) + _am - rsub0) >> shift;\n\n    return (q, r);\n  }\n\n  /// @dev Square root of an 256-bit integer.\n  /// @param _x the integer\n  /// @return y the square root of _x\n  function _sqrt(uint256 _x) private pure returns (uint256) {\n    uint256 z = (_x + 1) / 2;\n    uint256 y = _x;\n    while (z < y) {\n      y = z;\n      z = (_x / z + z) / 2;\n    }\n    return (y);\n  }\n\n  /// @dev Absolute value of a 25-bit integer.\n  /// @param _x the integer\n  /// @return _x if _x>=0 or -_x if not\n  function _abs(int256 _x) private pure returns (int256) {\n    if (_x >= 0)\n    return _x;\n    return -_x;\n  }\n}",
  "sourcePath": "/home/xhosal00/projects/pp/contracts/lib/FastEcMul.sol",
  "compiler": {
    "name": "solc",
    "version": "0.5.8+commit.23d335f2.Emscripten.clang"
  },
  "schemaVersion": "3.3.4",
  "updatedAt": "2021-06-16T22:23:25.771Z",
  "devdoc": {
    "author": "Witnet Foundation SPDX-License-Identifier: MIT",
    "details": "Library providing the following speed ups to an elliptic curve multiplication operation. - wNAF scalar representation - scalar decomposition through endomorphism",
    "methods": {
      "decomposeScalar(uint256,uint256,uint256)": {
        "details": "Decomposition of the scalar k in two scalars k1 and k2 with half bit-length, such that k=k1+k2*LAMBDA (mod n)",
        "params": {
          "_k": "the scalar to be decompose",
          "_lambda": "is a root of the characteristic polynomial of an endomorphism of the curve",
          "_nn": "the modulus"
        },
        "return": "k1 and k2  such that k=k1+k2*LAMBDA (mod n)"
      },
      "ecSimMul(int256[4],uint256[6],uint256,uint256,uint256)": {
        "details": "Scalars k and l are expected to be decomposed such that k = k1 + k2 λ, and l = l1 + l2 λ, where λ is specific to the endomorphism of the curve.",
        "params": {
          "_points": "An array with the affine coordinates of both P and Q, i.e., [P1, P2, Q1, Q2]",
          "_scalars": "An array with the decomposition of k and l values, i.e., [k1, k2, l1, l2]"
        }
      }
    },
    "title": "Fast Elliptic Curve Multiplication Library"
  },
  "userdoc": {
    "methods": {
      "ecSimMul(int256[4],uint256[6],uint256,uint256,uint256)": {
        "notice": "Simultaneous multiplication of the form kP + lQ."
      }
    }
  }
}